:020000040800F2
:10000000C0270020118A0008A9880008AB880008D2
:10001000AD880008AF880008B18800080000000023
:10002000000000000000000000000000B38800088D
:10003000B588000800000000B7880008B9880008EB
:10004000298A00082D8A0008318A0008358A0008AC
:10005000398A00083D8A0008418A0008458A00085C
:10006000498A00084D8A0008518A0008558A00080C
:10007000598A00085D8A0008618A0008658A0008BC
:10008000698A00086D8A0008718A00080000000073
:10009000000000000000000000000000758A000859
:1000A000798A00087D8A0008818A0008858A00080C
:1000B000898A00088D8A0008918A0008BD88000896
:1000C000C3880008958A0008998A00089D8A00085C
:1000D000A18A0008A58A0008A98A0008000000007B
:1000E000AD8A0008B18A0008B58A00080000000047
:1000F000000000000000000000000000B98A0008B5
:1001000000000000BD8A0008C18A0008C58A0008F6
:1001100000000000000000000000000000000000DF
:10012000C98A0008CD8A0008D18A0008D58A00084B
:10013000D98A000800000000000000000000000054
:10014000000000000000000000000000C988000856
:10015000DD8A0008E18A0008E58A0008E98A0008CB
:10016000ED8A0008F18A000800000000000000008D
:10017000000000000000000000000000000000007F
:1001800000000000F58A00080000000000000000E8
:10019000F98A0008F8B5040025D004F13C05697817
:1001A00021B900202870204601F09AF924226A70B3
:1001B0002068DFF83C740168490849000160206844
:1001C000026842F4004202602068016821F40041A4
:1001D000016001F076FA01466068B84205D2DFF8A6
:1001E0001424914205D20120F2BDDFF80C048142B3
:1001F000F9D32068DFF804244368B1FBF2F29B09CD
:1002000042EA8313436023681E6A6068B84206D3DB
:100210004FF4967042434FF47A70B2FBF0F2521CE6
:10022000B60942EA86121A62491E2268D3696668D4
:10023000BE4206D2760000F044F8042913D204210D
:1002400011E0A06820B906EB460600F03AF805E098
:100250001920464300F035F841F4804108050CBFF1
:10026000012141F40041DFF8980303400B43D361BF
:1002700022681368E069216A23F0C00303430B433B
:1002800013602268DFF87C03936821690340E0680B
:100290000B43034393602268D368A06961691B0A1A
:1002A00040EA03230B43D36020212068026842F018
:1002B0000102026000206860697020630021A9705B
:1002C000F2BDB1FBF6F1491CC1F30B01704738B523
:1002D000040001D1012032BD04F13C0524206870E6
:1002E00000F020FF01F03FF90020686000216970F4
:1002F0002063A970287032BD006841690A0644BFB6
:100300000021016170472DE9F84304460E46154669
:10031000994601F0EFF904F13C07804678782028EF
:1003200008D1CDF8008019230122DFF8DC1200F09B
:10033000C4F8002840F087803878012800F08380D6
:1003400000F0AAF8206800F0A0F8102100F0B8F83A
:100350002085DFF8B802E062E16A082918BF0129A8
:1003600004D081421CBF206B122801D100F065F936
:10037000CDF800800022089D2B4600F09CF838B193
:1003800020680168CA0555D54FF40070786051E0C7
:100390002069B0F5804F04D1216806F0FE060E6199
:1003A00012E0F009216800F0060040F0F00008615A
:1003B00043462A46DFF85812204600F06BFF00281B
:1003C00038D12068F6B2066143462A46DFF8441267
:1003D000204600F05FFF00282CD100F037F8208D78
:1003E000002829D04246294600F062F8E8B9626A3E
:1003F000216810780861606A411C616200F0BDFCF0
:10040000208D401E208521684A69530706D580B299
:1004100020B1606A02780A6100F02DF84246294650
:10042000204600F0B2FF0028D9D07868042801D116
:1004300000F087FE012007E000F083FE04F13C009D
:1004400000F046F800E00220BDE8F283009020684A
:100450004169009182690092009970471A461146DD
:10046000106820F48060086070472868016841F4D3
:10047000007101607047606A411C6162608D411EBD
:100480006185208D411E21857047016821F400613E
:10049000016021207870704701223A70206801685D
:1004A000CA0703D4016841F0010101607047414669
:1004B000204600F048BF4FF00111204600F0B4BEC6
:1004C000B970002078606562A4F82A90608D70474A
:1004D0002022427000218170017000207047F8B521
:1004E00000F06CF80AD100F075F800F095F818B13A
:1004F00000F06CF8F9D403E000F093F80220F2BDAC
:1005000004F13C000578012DF8D000F025F82125F4
:1005100000F035F800F091F80020F2BDF8B500F0D9
:100520004DF80AD100F056F800F076F818B100F056
:100530004DF8F9D403E000F074F80220F2BD04F1A4
:100540003C000578012DF8D000F006F8222500F0D7
:1005500016F800F027F8F2BD0126067025682F680E
:10056000FE0705D427683D683E4645F00105356025
:10057000102625682F6827F400672F6070474570A4
:1005800086700025456062626385628DDFF87C308D
:100590002285E362816005702068426842F4E0626F
:1005A000426070472068016841F480610160206802
:1005B000026842F480720260002070470446002006
:1005C000009004F13C056878202870472568A869E8
:1005D00085077047DFF8700006681927B6FBF7F744
:1005E0004FF47A75B7FBF5F5192045430095704730
:1005F000A186010080841E0000093D0040420F00DA
:100600000030FFFF007CFFFF020010000000FFFF32
:1006100008000100020001000098401E00900098B0
:1006200070472063202104F13C0000224170827059
:10063000416841F02001416070472068016841F441
:10064000807101607047000014010020416841F48E
:100650008051416070472DE9FC41044604F13C059E
:100660002168DFF8EC6A4B68E06A95F802C06F78A1
:100670000022BCF1100F18BFBCF1400F40F04E82B9
:100680008A69D1F814E05FEACE7805D4B0F52A0F74
:1006900018BFB0F12A4F47D05FEACE7045D5980514
:1006A00043D5E06AB0F52A0F08BF012204D0E06A02
:1006B000B0F12A4F01D10822E262A878402809D17E
:1006C00068690028A8681ABF40F00100C0B200F0B5
:1006D000FE0028E02069B0F5804F16D16878212807
:1006E000A8680EBF00F0FE0040F00100C0B2086133
:1006F000606B00281CBFC06B00282AD1A06B0028AB
:100700001CBFC06B00280FD023E0686920B900F03F
:1007100011FB40F0F00006E06869012804D100F008
:1007200009FB40F0F100086102E35FEA0E7015D5A5
:10073000980513D5A868C0B20861606B00281CBF7B
:10074000C06B002805D1A06B00281CBFC06B00281F
:10075000EAD02068416841F4006124E15FEA8E70CC
:1007600000D5980540F1A180AF78E26A236B6878E4
:10077000222840F097806869002808BF402F03D1E5
:1007800000F0E5FA009AD3E26869002804BF206906
:10079000B0F5404F09D100F0E0FA084642F480720B
:1007A00002606969491C6961C2E2608D30B900F07C
:1007B000D4FA0B4642F400721A6070E0608D012892
:1007C00039D1B24217D10A46FFF74AFE216848687C
:1007D000020507D50B460022186820F480600860E7
:1007E00000925AE000F01BFB21680A68084642F4B8
:1007F0000072026053E0082A18BF202A03D0122B8F
:1008000009D1012A0CD00A46FFF72AFE00220092E5
:1008100000F0E2FA43E0042A1CBF022A102A04D0A6
:100820000A46106820F4806003E00A46106840F42D
:10083000806008602FE0608D022818D1042A1CBF58
:10084000022A102A0AD00B46186820F4806008603B
:100850002068036843F40063036004E00F463868CF
:1008600040F480600860206841680B0507E00B4693
:10087000186840F4806008602068436819050AD54C
:10088000B24218BF012A04D0082A1CBF102A202A0D
:1008900001D1FFF7DBFE00200090FFF7D8FD00221A
:1008A0006A6145E200F0BBFA42E252070EF0040032
:1008B0005FD5D1F804805FEA0852F5D45FEA0E6292
:1008C0002CD55A052AD5002828D16A78AB78E76A52
:1008D000208D002808BF212A13D1082F1CBF202FEC
:1008E000B74204D000F02CFA0022AA702DE000F0EC
:1008F00086FA30D10021A9702046BDE8F64100F00B
:10090000FFBE212A03D0402B08BF222ACCD1608D04
:1009100000284CD0A878402827D0D6E10028C3D0A2
:100920009805C1D5212F1DD1E26A687821283BD1D5
:10093000608D08B100F0C9B9082A1CBF202AB24254
:1009400006D000F0FDF90020A8702021697004E0B5
:1009500000F055FACED00021A9702046BDE8F6413E
:1009600000F00FBFBCF1400F1ED12046BDE8F6419C
:10097000F2E24A68160517D45FEA4E627AD55E0540
:1009800078D5002876D1687822280DD1E66A608D66
:1009900004280AD300F0EBF9608D032804D1206805
:1009A000416821F480614160C2E1E26A022A5CD0C0
:1009B000012818BF002858D10020DFF868380090BF
:1009C00019201968B1FBF0F04FF47A72B0FBF2F223
:1009D00002EB820200922146FFF71EFE20B10A6858
:1009E00010688305F8D41DE001F13C02506840F026
:1009F000200050600868436823F4E06343600C689B
:100A000020694B6A1870486A441C4C622024488D47
:100A1000431E4B855470002090700846BDE8F64197
:100A200000F0C3BE1068114620F4806008602068A2
:100A3000426822F4E0624260216800F098F92020C8
:100A40006870A978402908D10020A870002121638E
:100A50002046BDE8F64100F0B7BE0020A870082E81
:100A600018BF202E53D0122052E0486820F4806036
:100A700048605DE10028FCD09805FAD5E06A628DF7
:100A8000042A05D1486820F480604860216847E165
:100A9000628D032A0CD14A6822F480624A600428DD
:100AA00018BF022801D000F091F92268106938E1DE
:100AB000628D022AEBD1012818BF10280DD004281E
:100AC00018BF022804D00B46196841F4007108E0F1
:100AD0000B46196841F4806103E00B46196821F464
:100AE00080611A46116000F052F900F050F9216857
:100AF0004A6822F440724A6020216970AA78402A2C
:100B0000A2D00021A970082818BF2028ABD100204E
:100B100020632046BDE8F64100F03DBE686800B99C
:100B20008A69D1F814C05FEA8C7025D5980523D561
:100B3000686800B18A696B78002003F02803282BCD
:100B400014D14B6823F480634B60510758BF0120D8
:100B5000110654BFE268A2690021297002B0014663
:100B60002046BDE8F04192B200F02FBE00F0EFF851
:100B7000002100982970DBE05FEACC6078D59A0507
:100B800076D56F78486820F4E060486000210091D5
:100B900022685069009022681168104641F00101F6
:100BA0000160009A00F012F921684868020528D512
:100BB0000FF2A158222F18BF2A2F10D0606B00F01F
:100BC000F1F8606B00F014FE01281AD0606BC0F8D9
:100BD0005080606B00F0FAFD98B1606B0FE0A06B85
:100BE00000F0E0F8A06B00F003FE012809D0A06B34
:100BF000C0F85080A06B00F0E9FD10B1A06B016D52
:100C00008847608D98B1206841694A0702D500691C
:100C100000F0AEF8206841694A0602D5006900F08C
:100C2000A7F8608D18B1686840F0040068606868D3
:100C300018B12046BDE8F641ECE12A2F05D120632A
:100C400028216970204600F0D6FD6878282807D151
:100C5000E66200F0CEF82046BDE8F64100F0CCBDDB
:100C6000206B222818BF222F62D100F0C2F84DE07D
:100C70000CF00400212F18BF292F2DD15FEA0C6240
:100C80001CD55E051AD5C8B96A78608D00284FD08A
:100C9000606A03780B61606A411C616200F071F860
:100CA00008BF292A44D100F08BF821202063282195
:100CB00069702046BDE8F64100F09FBD002837D09E
:100CC0009A0535D5608D002832D0606A02780A61B5
:100CD000606A411C616229E05FEA4C621BD55E05D7
:100CE00019D5C0B96A78608D10B30869616A087057
:100CF000606A431C636200F044F808BF2A2A17D1D7
:100D000000F05EF822202063282169702046BDE8AB
:100D1000F64100F070BD58B19A0509D5608D38B123
:100D20000869616A0870606A421C626200F025F816
:100D3000BDE8F381A8680004C00D00F0060070470C
:100D4000486820F4E06048601121216370470090FA
:100D50004A690092896900917047002200924B69AC
:100D6000009389690091009821680A6870470869B2
:100D7000616A0870606A421C6262608D411E618512
:100D80007047608D411E6185608D00287047236823
:100D90001969626A1170616A4B1C6362618D4A1E37
:100DA00062857047026853686385608D18B1686812
:100DB00040F004006860486820F4006048607047B4
:100DC0002068416821F480614160704720680168B3
:100DD00021F4806101607047206841690091826957
:100DE0000092009922681068114640F40070086073
:100DF00070470020206320216970A8707047486800
:100E000020F4E06048602068016841F400710160EE
:100E10000020206320216970A878402870470020B6
:100E200000904A6900928969009100987047F8B56E
:100E3000054605F13D002A68566957684178002447
:100E4000F30505D5FB0503D56FF4807301245361C9
:100E5000B20507D5FB0505D52B686FF4007244F089
:100E600002045A6172055ED5FB055CD56A8D037874
:100E7000D5F830C06FF4806E202908BF002A47D112
:100E8000212B18BF292B04D0282B08BFBCF1210F20
:100E90003ED10178EA6ADFF8B832082A14BF202A66
:100EA000282917D1EB62002329684A6822F4E062FE
:100EB0004A602968C1F814E029680A6822F480624F
:100EC0000A6000212963202202704370284600F046
:100ED00093FC28E0212917D1EB62296320220270BC
:100EE000002343702868416821F4E061416028686C
:100EF000C0F814E0286800F02AF82846FFF7FCF94B
:100F0000284600F07AFC0EE02968C1F814E00AE0F7
:100F1000286844F00404C0F814E0102918BF4029E0
:100F200001D1FFF7A2FA300507D5F90505D52968E3
:100F30006FF4006044F00804486134B1286C044345
:100F40002C642846BDE8F24064E0F1BD30680168D9
:100F500021F480610160704710B500F13D0200F19D
:100F600048041378A16889B900686168012905D12E
:100F70002268D2B20261A068801C05E021680904E1
:100F8000090E0161A068401CA06010BDA168012984
:100F900004D122680068D2B202610AE0A168022985
:100FA00033D1222B09D101680A68084642F48072C5
:100FB0000260A168491CA16010BD418D61B1212B67
:100FC0000AD1436A026819781161416A4A1C426277
:100FD000418D4A1E428510BD418D002908BF212B3D
:100FE00017D101684B6823F4E0634B60002401686B
:100FF0000B6843F400730B6000210163202313701E
:101000005470BDE8104000F07BBBBDE81040FFF716
:1010100073B910BD38B5044604F13D0528786978E8
:10102000102914BF4029222804D121680A6822F41B
:1010300000620A6000F02801282904D10020206302
:1010400028222A700BE021684A68110505D460281F
:1010500003D02020287000216970002020632068C0
:1010600041680A0523D5416821F400614160606B45
:101070000FF2E10190F83520012A09D00165606B7B
:1010800000F0A4FB002825D000F053F8606B0BE0C3
:10109000A06B0165A06B00F099FBD8B1206800F04F
:1010A00037F800F046F8A06B016D884712E02A7807
:1010B000602A0AD1202129700022226400F028F839
:1010C00000F030F800F09AFB04E000F021F8204630
:1010D00000F06BFB206C10F00F0F04D0206841680B
:1010E00021F4E06141602878216C4A070ED5282858
:1010F0000CD11748E06200212163202028700022D3
:101100006A702046BDE8324000F076BB31BD000079
:1011100041694A0605D50069616A0870606A421C27
:1011200062627047206801684908490001602046F2
:101130007047206801684908490001602020287034
:1011400070472068016841F4007101607047000039
:101150000000FFFF7CB5002100911926816B31480A
:1011600001F13D024FF47A7413780568B5FBF6F689
:10117000B6FBF4F4232044430094009838B100985F
:10118000401E00900C6820688505F6D403E0086CCA
:1011900040F020000864486B08B10024C463886BE9
:1011A00008B10024C4630868046824F480640460FF
:1011B00000204885486B08B100240465886B08B19D
:1011C00000240465086804686408640004601078FA
:1011D00060280AD1202313700024547000220A646E
:1011E0000846BDE8764000F009BB03F02803282B31
:1011F0000ED10868036843F00103036028230868E0
:10120000046844F48064046000200863137003E001
:1012100020201070002454700846BDE8764000F08D
:10122000C4BA0000140100202DE9F8430E46089CC2
:10123000054691469846370C2868F9B201290CBF3B
:101240004069806900F06EF80CBF0120002048451D
:101250001ED118F1010FEFD000F04CFA001B8045B1
:1012600002D3B8F1000FE7D12868F9B201290CBF09
:101270004069806900F056F80CBF01200020484505
:10128000DAD100F054F8416002700120BDE8F28329
:101290000020FBE72DE9F0410E460546144698462E
:1012A000370CF8B2012817D12968486900F03AF8DC
:1012B00017D028684169480515D52A681168104675
:1012C00041F4007101606FF4806229684A6100F0A6
:1012D0008BF841F004011BE02968886900F022F8CE
:1012E000E7D1002017E014F1010FDAD000F002FA84
:1012F000A0EB0800844201D3002CD2D1F9B22868B7
:1013000001290AD1406900F00DF8CDD000F00FF8A6
:10131000416002700120BDE8F081806900F002F8B0
:10132000DAD0F3E7304080B2B1B288427047002093
:101330002863202105F13C00002241708270416841
:1013400041F02001704770B505460C4616462868E6
:101350004169080617D4284600F050F818B914F16E
:10136000010FF4D001E0012070BD00F0C3F9801B33
:10137000844201D3002CEAD1286841690806E6D4EA
:1013800000F025F8EFE7002070BD70B505460C466B
:10139000164628684169480717D4284600F02EF8F9
:1013A00018B914F1010FF4D001E0012070BD00F074
:1013B000A1F9801B844201D3002CEAD1286841693D
:1013C0004807E6D400F003F8EFE7002070BD0021E5
:1013D00005F13C002963202242708170426842F08E
:1013E000200242600170704700202863202105F12F
:1013F0003C000022417082704168704710B501685E
:101400004A6953050DD56FF480644C610021016376
:101410003C30202343708170436843F004034360F1
:10142000017012F4806018BF0120C0B210BDF0B48A
:101430000246106895681318506803EB5004C00703
:1014400048BF4D44A3422DD013F8016B16F00300A2
:1014500004BF13F8010BC01C31090F2907D113F881
:10146000011B0F3103E013F8017B05F8017B401EDF
:10147000F9D10029E6D013F8010BC6F38106032E3B
:1014800008BF13F8016B00EB0620404228440026F9
:10149000B71E8F421EBF10F8017B05F8017B761C3A
:1014A000F6D1CFE7F0BC02F10C00704781B000200C
:1014B00000903B48416841F480414160416801F43B
:1014C000804100910021009A0091036843F080530D
:1014D0000360006800F080500090009801B07047F1
:1014E00010B586B004461421002201A800F094F93A
:1014F00021682C4A914234D100202B4C0090216865
:1015000041F0020121601221206800F002000090E9
:10151000C020009A029100220392032101900491BD
:101520000422059201A9214800F080F900200090D2
:101530000022216941F4001121610021206900F499
:101540000010009000981F2000F0E9FA1F2000F022
:1015500003FB00220021202000F0E1FA202000F00F
:10156000FBFA06B010BD00680E49884200D07047F3
:1015700010B50B480D4C026822F4001202604021A5
:10158000204600F020FA8021204600F01CFA1F209F
:1015900000F0EDFABDE81040202000F0E8BA0000AD
:1015A00040380240005400403038024000040240FD
:1015B0002DE9F04104000E4654D0474F386800F042
:1015C0000700B04202D200F073F84BD12068434DBF
:1015D000810712D5400703D5A96841F4E051A960FD
:1015E0002078010703D5A86840F46040A860A96886
:1015F000A06821F0F0010143A9602178C80729D52E
:101600006068012802D129688A0305E0022818BF12
:10161000032803D129688A0103D423E029688A07B3
:1016200020D5A968890840EA8100A86000F062F826
:101630008046A868616800F00C00B0EB810F09D00B
:1016400000F058F8A0EB080041F289318842F0D34D
:1016500003202BE0386800F00700864204D200F037
:1016600027F801D0012021E02078420705D5A9689C
:10167000E06821F4E0510143A9602178080706D50C
:10168000A968206921F4604141EAC001A96000F025
:101690009DFAAA681249134BC2F30312895CC84031
:1016A00018601148006800F0C1FA0020BDE8F08120
:1016B0003E70396801F00701B1427047094800687F
:1016C00070470848094A006813680949C3F3822231
:1016D000FFE7895CC8407047003C02400038024088
:1016E000B0890008140100201001002008380240D1
:1016F000208A000801484068704700BF08010020A8
:10170000704703681AB95A1E026008467047197874
:1017100011B94FF0FF307047591C016018787047BD
:1017200000F043BB00F058BB80B5002918BF002A69
:1017300004D000F005F8FEF7E6FD00B1032002BD7D
:10174000009393B20A4641001D48704780B50029B6
:1017500018BF002A04D0FFF7F4FFFEF7C0FE00B167
:10176000032002BD80B5002918BF002A04D0FFF76E
:10177000E8FFFEF7D3FE00B1032002BD1149086067
:1017800070470F49884205D10E48016800291CBFE7
:101790000120084770470A49884205D10948016875
:1017A00000291CBF0220084770470549884205D11F
:1017B0000448016800291CBF032008477047000047
:1017C0002C230020B02300207047704790F835107C
:1017D000022903D08022426501207047052180F84C
:1017E00035100068026852085200026000207047FD
:1017F00090F83500704770477047704770478268AF
:10180000521C8260426832B10268531C036011703E
:101810004168491E416070474018491C1CBFB1F126
:10182000010100F8012DF9D170472E002DE9F84F84
:101830000022A74CDFF89C824FF00F0901230F68AC
:1018400093401F409F4240F0B8804FEA420C03256E
:1018500005FA0CF56FEA050E4D6805F00306012E3A
:101860001CBF05F00305022D10D18568CE680EEA75
:10187000050506FA0CF635438560456825EA03033D
:101880004D68C5F3001595402B43436093000D79D7
:1018900005F00305032D1ED0C5688E680EEA050508
:1018A00006FA0CF63543C5600D7905F00305022DE7
:1018B00011D1D50800EB850503F01C06D5F820B042
:1018C00009FA06FA2BEA0A0BD1F810A00AFA06F672
:1018D00046EA0B062E6205680EEA05060D7905F04C
:1018E000030505FA0CF545EA060CC0F800C04D6882
:1018F00015F4403F61D04FF0000ECDF800E04FEA04
:10190000920CD8F8005045F48045C8F8005003F018
:101910000C03D8F800E0704D0EF4804ECDF800E0D6
:10192000DDF800E055F82C6009FA03F5AE436B4D85
:10193000A84208BF4FF0000E18D0694DA84208BF5A
:101940004FF0010E12D0674DA84208BF4FF0020EB3
:101950000CD0654DA84208BF4FF0030E06D0634D72
:10196000A8420CBF4FF0040E4FF0070E0EFA03F31F
:10197000DFF864E133434EF82C30FE43A3684D6832
:101980003340ED0248BF3B43A360E3684D683340FA
:10199000AD0248BF3B43E36063684D683340AD032D
:1019A00048BF3B436360236806EA030C4B68DB03D4
:1019B00048BF47EA0C0CC4F800C0521C0F2A7FF63F
:1019C0003DAFBDE8F18F2DE9FC4F0022404BDFF821
:1019D00008A14FF00F094FF0010B0BFA02F707EACD
:1019E000010CBC456BD14FEA920E5AF82E504FEACB
:1019F000820808F00C068DF8046009FA06F4254008
:101A0000364EB04208BF002613D0354EB04208BF54
:101A100001260ED0334EB04208BF022609D0324E06
:101A2000B04208BF032604D0304EB0420CBF04269B
:101A3000072600959DF8045006FA05F5009EAE4273
:101A400018D11D686FEA0C0C0CEA05051D605E6874
:101A50000CEA06065E60DD680CEA0505DD609E683E
:101A60000CEA060CC3F808C05AF82EC02CEA04048D
:101A70004AF82E4003245500AC40D0F800E0E4437F
:101A800004EA0E0ED508C0F800E000EB850C08F063
:101A90001C05DCF820E009FA05F52EEA0508CCF86B
:101AA0002080D0F80CC004EA0C0CC0F80CC0D0F8B0
:101AB00004E02EEA0707476087683C408460521CB8
:101AC0000F2A8AD9BDE8F38F02B9090481617047F2
:101AD000003C014044380240083801400000024008
:101AE0000004024000080240000C024000100240C6
:101AF0000901020002D42E48815470472D4B02F098
:101B00000F021A4402F8041C70472B490A6860F35C
:101B10000A2240F2FA5060F31F420A60704770B523
:101B2000254B1C68C4F302230124C3F10705052DCE
:101B30002EBF0F2504FA05F56D1E1E1D072E34BF9E
:101B40000023DB1E2940994004FA03F3BDE87040EE
:101B50005B1E1A401143CBE7010007D4012200F0BD
:101B60001F01164B8A40400943F8202070470100AE
:101B70000BD4012200F01F01114B8A40400943F8A9
:101B80002020BFF34F8FBFF36F8F7047401EB0F11F
:101B9000807F01D3012070470A490B4A4860002327
:101BA000F02010708B600720086000207047000054
:101BB00000E400E018ED00E00CED00E000E100E0E2
:101BC00080E100E010E000E023ED00E030B5144CCF
:101BD000606800F00C00042802D0082802D01DE044
:101BE000104830BD226820680023410202F03F0205
:101BF00004D525680B49C5F3881003E020680A491D
:101C0000C0F38810A1FB000100F0FAF82168C1F3CD
:101C10000141491C4900B0FBF1F030BD024830BD24
:101C20000438024040787D010024F40038B50D4DA1
:101C30000D4B2A7804464FF47A711868B1FBF2F222
:101C4000B0FBF2F0FFF7A2FF50B9102C08D200222F
:101C500021464FF0FF30FFF762FFAC60002032BD3D
:101C6000012032BD080100201401002010B586B00B
:101C700000F04AF900F04BF8142101A800F05EF9D9
:101C800000200090564C5748026842F0040202605F
:101C9000016801F0040100F034F843F080030360B0
:101CA000016801F0800100F02CF843F001030360AB
:101CB000016801F0010100910021009A00910022C9
:101CC000036843F0020303604FF40051006800F022
:101CD0000200009000982046FFF7F6FE4FF40050F7
:101CE00001210190029100220392049201A9204651
:101CF000FFF79CFD00F026F900F04EF900F070F9B6
:101D0000FCE700910021009A00910368704780B5BC
:101D100092B0302106A800F011F9142101A800F0BA
:101D20000DF9002000903048016841F080510160B9
:101D3000006800F08050009000200099009002217F
:101D40002A48026861F38F324FF4803102600068E4
:101D500000F4404000900120009A079102224FF4C5
:101D600080010C920D910F2290210E920F910690FE
:101D7000042205211092119106A800F04DFA08B135
:101D800000F03CF8022102910F204FF480510190A5
:101D90000022049103920592012101A8FFF708FC9B
:101DA00008B100F02BF813B000BD114A11481249D8
:101DB00080B5426000234FF4804201608360C360BD
:101DC000026143618361C3610362FEF7E3F910B10D
:101DD000BDE8014012E001BD0648FEF778BA0000F8
:101DE0000008024030380240403802400070004095
:101DF000801A06002C2300200054004072B6FEE733
:101E0000D3BBD9B1B2F5803F5BD2022A1ED98C4632
:101E1000B1FBF2F102FB11C31B0443EA1043B3FB15
:101E2000F2FC02FB1C3380B240EA0343B3FBF2F046
:101E300002FB103240EA0C4000237047022A05D909
:101E40008446B0FBF2F002FB10C270474AB105D1E4
:101E500000F0010249085FEA3000704700220023C9
:101E6000704700F061BB0B000200002100207047AA
:101E7000F7D3002200237047904271EB030CF2D39A
:101E800070B5B1FA81F4B3FA83F52C1BA340C4F109
:101E9000200532FA05F63343A2405FF00046E640E3
:101EA00002E05B085FEA3202841A71EB030524BF8B
:101EB000204629467641F4D302000B003000002171
:101EC00070BD70B5B1FA81F4B2FA82F5C4F12004A4
:101ED0006419B4F12006DAD3B2405FF00044F44054
:101EE000002502E052085FEA3303C61A71EB020EC6
:101EF00024BF3046714664416D41F3D302000B00AC
:101F00002000290070BD430080B50B48016841F4F2
:101F100000710160026842F480620260016841F46D
:101F2000807101600320FFF7F0FD0F20FFF77EFEB8
:101F3000FFF7BCFA002002BD003C0240002200F086
:101F4000F9BA000010B5104C10490022204600F0EC
:101F50000AFB08B1FFF752FF0D49204600F016FBBF
:101F600008B1FFF74BFF0B49204600F05DFE08B1BA
:101F7000FFF744FF204600F022FB18B1BDE81040F7
:101F8000FFF73CBF10BD00BF781B0020B40100204C
:101F900024010020A001002010B59A499A4C00208D
:101FA000087000F0AFFE00F0ADFE3C21204600F0CE
:101FB000E4FE3C22214604F1640000F0FBFE00F048
:101FC00005FF04F11402211D204600F009FF00F076
:101FD00042FFBDE810400FF21D1000F0D7BF000017
:101FE00070B500F04CFF874C874D38B300F047FFC9
:101FF000032806D105F1400000F052FF01202070B7
:102000000EE0022818BF01280AD1002005F1400186
:10201000002241F82020401C0428FAD3012121701D
:10202000A07848B10021A17072B605F11402291DF3
:10203000284600F0D5FE62B600F00DFF2078B0B360
:1020400000212170002405F1400000EB8401E0B282
:1020500091ED000A01F0B8F9641C042CF3D3286E4A
:10206000696B401C8842286621D300202866002422
:10207000281905EB840690F83810E0B201F0BAF99F
:10208000DFED5F0A96ED091A20EE200AB8EE411A3C
:1020900080EE010A01F0E0F9641CBCEEC00A042CD9
:1020A00086ED140AE4D305F1500000F083FF00F040
:1020B00071FFBDE87040FFE710B5534C3C2204F1BE
:1020C0006401204601F0E4F988B1FFF713FBE16BEE
:1020D00081420CD23C21204600F01DFE38B9214639
:1020E00004F16400BDE810403C2200F063BE10BD66
:1020F00000000000002800D1704770B5052942F2A9
:102100001074404A404D15D8DFE801F003151F2632
:102110003439002105EB810250F821305360491C0D
:102120000429F7D33748012181704170FFF7E2FAA3
:102130002418EC6370BD002105EB810250F82130BA
:102140005361491C0429F7D3ECE70021425C6A542F
:10215000491C0429FAD3E5E7002350F8231005EBC6
:10216000830601B901215B1C042B7162F5D30120A8
:102170005070DBE70068686301215170D6E70021E9
:10218000435C6E18491C042986F83830F8D3EEE712
:10219000002800D1704710B505291B4A0BD8DFE88D
:1021A00001F0030B131A2225002102EB81035C6866
:1021B00000F02CF8F9D310BD002102EB81035C691B
:1021C00000F024F8F9D310BD0021535C4354491C9E
:1021D0000429FAD310BD002102EB81035C6A00F0F0
:1021E00015F8F9D310BD516B016010BD00215318D3
:1021F00093F838304354491C0429F8D310BD00002B
:1022000000247449B82300206800002040F82140D1
:10221000491C0429704700002DE9F843040016D03A
:102220002078DFF8F462C10713D5B06800F00C0025
:10223000042807D0B06800F00C0008283ED1706870
:1022400041023BD53068810303D56068002800F067
:102250005D812078DFF8C492810719D5B06810F04D
:102260000C0F07D0B06800F00C0008285BD1706834
:10227000410258D43068810703D5E268012A40F052
:1022800045813068216920F0F80040EAC1003060E3
:102290002078010774D56069A149002863D0012224
:1022A0000A60FFF727FA0546706F810768D4FFF7C9
:1022B00021FA401B0228F7D903202AE16068B0F513
:1022C000803F04D1306840F48030306011E0B0F5D8
:1022D000A02F306806D140F480203060316841F48E
:1022E000803105E020F480303060316821F48021B5
:1022F0003160606858B1FFF7FDF905463068810329
:10230000A7D4FFF7F7F9401B6528F7D3D4E7FFF709
:10231000F1F90546306881039BD5FFF7EBF9401BC7
:102320006528F7D3C8E7E06870B10121C9F800104B
:10233000FFF7E0F9054630688107A2D4FFF7DAF924
:10234000401B0228F7D9B7E70022C9F80020FFF7A1
:10235000D1F90546306881079AD5FFF7CBF9401BC4
:102360000228F7D9A8E70860FFF7C4F90546706F9F
:10237000810705D5FFF7BEF9401B0228F7D99BE777
:102380002078410759D5306C0025C1000BD40020BE
:1023900000900125316C41F080513164306C00F0C7
:1023A0008050009000985F4F3868C10510D438689D
:1023B00040F480703860FFF79DF980463868C105A9
:1023C00006D4FFF797F9A0EB08000228F6D973E7C7
:1023D000A068012805D00528306F06D140F0040020
:1023E0003067306F40F0010005E040084000306782
:1023F000306F20F00400306741F28938A06858B18E
:10240000FFF778F90746306F810711D4FFF772F9AB
:10241000C01B4045F7D34FE7FFF76CF90746306F15
:10242000810705D5FFF766F9C01B4045F7D343E7A1
:102430001DB1306C20F080503064A069002867D056
:10244000B16801F00C0108293DD002282CD10020F0
:10245000C9F86000FFF74EF905463068810105D5DF
:10246000FFF748F9401B0228F7D925E7E269206AFF
:10247000616A0243A06A400842EA8112401E42EAB1
:102480000042E06A42EA006272600121C9F860100D
:10249000FFF730F904463068810139D4FFF72AF993
:1024A000001B0228F7D907E70020C9F86000FFF7F2
:1024B00021F90446306881012AD5FFF71BF9001B7A
:1024C0000228F7D9F8E6012820D07068E26900F404
:1024D0008001914202BF00F03F01226A914201BF98
:1024E00047F6C0710140626AB1EB821F0ED1A26A49
:1024F00000F4403101F580315208B1EB024F02BFC8
:1025000000F07060E16AB0EB016F01D0012000E0E3
:102510000020BDE8F28300BF0038024000004742BF
:10252000800E4742007000407047000062F30F22A7
:1025300062F31F4200B500BF13009646944610395F
:1025400028BFA0E80C50FAD85FEA417C28BF0CC035
:1025500048BF40F8042BC90728BF20F8022B48BF0A
:1025600000F8012B00BD10B508B9032010BD00F51F
:1025700027730024DC619C625C6301B199610121D5
:1025800019700270BDE8104001F029B81CB5002296
:10259000ADF8002009B9032016BD00F52E742160A6
:1025A000E16900EB8100D0F8B822D16A11B1684628
:1025B0008847A061206A401C2062002016BD01F0FF
:1025C00039B802460020D2F8B83213B110461A6862
:1025D0001047704710B5D0F8B8325A6890470024B9
:1025E00000B10324204610BD38B5044604F2AA25E4
:1025F000284601F0B7FA04F5257001210160828BAD
:10260000817D426011F01F0003D002280DD006D357
:1026100011E029462046BDE8344001F071B8294652
:102620002046BDE8344001F0BDB929462046BDE84A
:10263000344001F0EFB92046BDE8344001F080019C
:1026400001F011B838B50446080004F5257328D107
:102650001968032914D104F5AC7001890568A942F1
:1026600010D2C3686D1A19440560C160D4F85821AE
:10267000B4F86001824238BF0246204601F0E1FA18
:10268000002032BD187A032807D1596A086920B1A1
:1026900000221A64204609698847204601F0D9FAC9
:1026A000EEE7187A0328EBD15A6A90690028E7D040
:1026B00000251D6420469269BDE83840104738B5B2
:1026C0000546080005F525743DD12168022934D15D
:1026D000288CA96902468A4208D26B6A8A1A19189C
:1026E000AA616962284601F099FA0DE013D1686980
:1026F000904210D3616888420DD200220021284602
:1027000001F08CFA0020606000230022002128469E
:1027100000F0CFFF11E0207A032807D1616AC86872
:1027200020B1002222642846C968884780212846B3
:1027300000F099FF284601F093FA207B08B10021B0
:102740002173002032BD207A0328FAD1626A5069D1
:102750000028F6D00023236428465269BDE838409B
:10276000104738B5044604F5257001210172002296
:10277000026062600021016102730025406A002846
:102780001CBF4268002A03D02046904700B10325B1
:10279000402300220021204600F054FF04F5B070D1
:1027A00001214022C1700280402300228021204666
:1027B00000F048FF012084F82300402121842846AE
:1027C00032BD01740020704700F52770017804299C
:1027D0001CBF02784270042101700020704700F590
:1027E00027700178042904BF4178017000207047E8
:1027F00080B500F527710A78032A05D1C969002937
:102800001EBFC96900298847002002BD10B500F02D
:1028100019F80AB9032010BD1B78032B02D1126AE4
:1028200002B19047002010BD10B500F00BF80AB9B6
:10283000032010BD1B78032B02D1526A02B19047CE
:10284000002010BD00F527739A6B00EB8204D4F8CA
:10285000B82270470020704700F52771012210B59B
:102860000A700024CA692AB141685268C9B2904707
:1028700000B10324204610BD00207047002070479F
:102880007CB504460D46217863880026994212D211
:10289000ADF8001000E00026BDF8001062889142FB
:1028A00009D2694600F009F841780529F4D10646B5
:1028B000B178A942EFD1304676BD0A880378D318A3
:1028C0000B80017808447047F8B505464FF407704F
:1028D00000F0F9FE040005F5307705F52F7603D1F9
:1028E000B16947F8210042E04FF4077101F0C0F9E7
:1028F000B06947F82040B16957F82120326005F1EE
:102900004407287C48B94FF4007300F03EF80120DA
:1029100085F837004FF4007306E0402300F035F8E7
:10292000012085F83700402302220121284600F0CB
:1029300089FE012085F877011021396008230322E0
:102940008221284600F07EFE012004F50174F87112
:1029500000212160B06905EB8002D2F8C41208683A
:102960008047002222610020606122680AB90220AB
:10297000F2BD287C00280CBF4FF4007340230121D6
:10298000284600F096FE0020F2BD02228121284652
:1029900000F058BE38B50546812100F05EFE0022E9
:1029A00085F837200121284600F057FE002085F8E1
:1029B00077018221284600F050FE05F144000021F5
:1029C000C171016005F52F7405F53075A16905EB3E
:1029D0008101086860B1496848688047A16955F875
:1029E000210000F07DFEA169002045F82100206053
:1029F000002032BDF8B5054605F527730E46986BE5
:102A000005EB80020021D2F8C0428DF80010ADF82D
:102A1000021000270CB90320F2BD317811F06000DC
:102A20002DD0202847D1F288707805F5317CFAB195
:102A300009060FD59B6B5CF823C0DCF808302146F3
:102A40009847F288082A28BF07222146284601F025
:102A5000DCF835E004F500710870F088402828BFE4
:102A60004020487028464A78214601F0DFF827E0E8
:102A70009B6B5CF82340A3683146984720E0707850
:102A800030B101281CD00A2809D00B2810D012E040
:102A9000197803290FD102220DF1020104E0187800
:102AA000032808D101226946284601F0AEF807E064
:102AB0001878032804D03146284601F068F8032727
:102AC0003846F2BDF8B5044604F53273D8681E687E
:102AD00004EB8002D2F8C0520DB90320F2BD01F020
:102AE0000F07142010FB07F004EB000CDCF81400B7
:102AF00080B124225743F219D269B0FBF2F602FBEF
:102B0000160038B9CCF8140000230022204600F04B
:102B1000CAFD0FE005F502700022C260DB6804EB1D
:102B20008302D2F8C442236923B10A46006805F53E
:102B3000047198470020F2BD70B50546D5F8D4025F
:102B400005EB8002D2F8C0420CB9032070BD2846C4
:102B500004F5017600F0B3FD04F50371B060D5F81B
:102B6000D422306805EB8203D3F8C442E268904770
:102B7000002070BD10B5D0F8D41200EB810000F534
:102B80003070016809B9032010BD4368002B1EBFD7
:102B900001F500742078FF2804D062789B6898477C
:102BA000FF202070002010BDF8B511E0F8B500F04E
:102BB00027F800F020F800F029F80CB11021A171DD
:102BC0004FF4007105B1A98000B181800FE0F8B524
:102BD00000F016F800F00FF800F018F80CB1102112
:102BE000A1710DB14021A98008B14021818043200D
:102BF00030803846F2BD044601213846FFF740BE1A
:102C00000646074F82213846FFF73ABE0546812126
:102C10003846FFF735BE0A210180024870470000A0
:102C20005C0100201801002009B903207047D0F88A
:102C3000D42200EB8200C0F8C41200207047D0F804
:102C4000D43200EB8300D0F8C00208B903207047EB
:102C500000F502700160826000207047D0F8D42235
:102C600000EB8200D0F8C00208B903207047C0F81A
:102C700004120020704710B500F026F8012209B9AF
:102C8000032010BD01F50274E16841B9E260A1685A
:102C90008162A3682268812100F005FD00221046B0
:102CA00010BD80B500F010F809B9032002BDD1F8BD
:102CB0000422017C00290CBF4FF400734023012142
:102CC00000F0F7FC002002BDD0F8D41200EB810226
:102CD000D2F8C0127047000001F005B801F013B837
:102CE00080B586B000210091019101222F4B996897
:102CF0000391022304920593694601A801F0B6F8F6
:102D000007B000BD29482A4A05214FF400338160ED
:102D100002604360704770B50400A0B00D4602D059
:102D2000681C802801D9012025E0FF228021684607
:102D3000FFF7FCFB2A462146684600F03BF84FF0BF
:102D4000A5301F9072B6FFF7C7FFFFF7C9FF002439
:102D5000164D29685DF82420002301EB8401022030
:102D600000F08AFF060002D1641C202CF1D3FFF78B
:102D7000B5FF62B6304620B070BD00280A4600D1CB
:102D8000704710B5111D802988BF8022074B196834
:102D900001F17C042468DC60B4F1A53F03D1BDE8F7
:102DA000104000F007B810BD00000000A023002074
:102DB000000002084AB1000011F8013B521E00F861
:102DC000013B1CBF11F8013BF8E7704780B5FEF7E7
:102DD000A7FCBDE802400FF2E900FEF7CFBC0000FF
:102DE0002DE9F84504468846924600270025644EA2
:102DF000605D711908EB8502087306EB850192EDA1
:102E0000000A81ED0C0A0AEB85026423D2ED000A68
:102E1000C1ED100A20EE200ADFED580AC0EE800A4C
:102E2000BDEEE00A10EE102A12040521120E8DF8F4
:102E300000108DF8012010EE10EA8DF802E0032258
:102E40006946FEF771FC00B107466D1C042DCFDB0F
:102E50003846BDE8F2851CB5494C0020208120662B
:102E600004208DF80000FEF745FC64306066012206
:102E7000207A20446946007BFEF768FC13BD10B53C
:102E8000FEF738FC3E4C616E814207D2607A28B969
:102E900002216172FEF746FCFEF742FC607A10BD2B
:102EA000F8B504460025364E06EBC507D7E9040100
:102EB00001F08AF844F825006D1C042DF4DBF1BD07
:102EC0002DE9F84303282E4C04D10020012120666F
:102ED000617250E0267A216E3546012804EB4503E5
:102EE0000AD1002947D11946206604F10C030222B9
:102EF000585DFEF737FC3EE0022808BF01293AD1B1
:102F000014F81520587840EA022000B201F090F839
:102F100004EB85078046386C894601F09BF84246F1
:102F20004B4601F0BBF80022164B01F08DF904EB83
:102F3000C50541EC100B85ED040B0022124B01F08E
:102F4000ADF801F0A5FA3865761CF0B204280DDA68
:102F50000022042104F10C0322668DF80010267271
:102F60000122185C6946FEF7F1FB04E000202066B0
:102F7000207203206072BDE8F1830000ACC5A73B5E
:102F80000000002000408F4065CDCD41DFF8E01209
:102F90000860704710B5DFF8DC42207830B1201DA2
:102FA00000F070F88021201DFEF7C8FF002020707F
:102FB00010BD000038B586B00546FEF79BFB00EE5D
:102FC000100AE868AA4C0590B8EE400AA968049176
:102FD000DFEDA60A6A680392C0EE200A2B6802930E
:102FE00010EE900A01F036F8CDE900010FF2F02260
:102FF00000F00EF801E000F008F800F011F800F021
:103000000BF80028F7D107B030BD012001F052BA0B
:10301000AA21201D01F062BA81B2201D01F0A1BADF
:10302000201D01F0B7BA2DE9F041934F914D0446B0
:10303000B7F880008846002606E0002003E07F2ADB
:10304000FBDAB954401C761CD8F800108E4215D219
:10305000A15D82B20A2918BF0D29F0D181B20029E1
:10306000F1D00020B854384601F094FA02463946AF
:10307000281DFFF79FFE01202870DEE7A7F88000DB
:10308000BDE8F0812DE9F84F94B00BA90AAA02918E
:10309000019209AC009408AB0DF130020FF25421FB
:1030A0000FF21C35BEA60FF2DC2B0FF2AC280FF28C
:1030B0009C290FF2742A6E4C01F076FAB0F1010FE0
:1030C00091A176D100F0F5F840B902210DF10C0084
:1030D000FFF75EF800F0E2F88DA25AE000F0E8F8A1
:1030E00090B9002110A8FFF753F810ADD5F80C00E7
:1030F00000F0B0FF00F0EAF800F0E3F800F0DCF8D0
:10310000CDE900018AA214E0494600F0D2F898B94E
:10311000012110A8FFF73CF810ADE86800F09AFF15
:1031200000F0D4F800F0CDF800F0C6F8CDE90001C9
:10313000524AFFF76DFF33E0414600F0BAF868B934
:10314000032103A8FFF724F803A88268C168406838
:10315000039B01920291009083A21AE0594600F06D
:10316000A8F858B904216846FFF712F8DDF80030D6
:1031700087A2AA21201D01F0B1F911E0314600F02B
:1031800098F858B9052103A8FFF702F800F086F86F
:1031900085A2AA21201D01F0A1F901E000F09BF811
:1031A000FFF73EFFFFF738FF00285BD0FFF72DFF4A
:1031B000F6E72768022816D1594600F07AF838B9A0
:1031C0009DED080ABCEEC00A8DED000A04213BE02B
:1031D00000F081F8FFF724FFFFF71EFF002841D021
:1031E000FFF713FFF6E7052831D100F062F808ACCD
:1031F00018B900F045F8022126E000F059F808B9A6
:10320000002104E0494600F054F810B9012108A853
:103210001BE0414600F04DF878B96A4604EB8001A6
:1032200002EB800391ED000A401CBCEEC00A0428AA
:1032300083ED000AF2D3032106E0314600F039F8AD
:1032400080B900F01DF805216846B8470AE000F093
:1032500042F801E0FFF7D9FEFFF7E2FEFFF7DCFEE0
:103260000028F7D115B0BDE8F08F000000007A44C7
:103270007421002024220020A822002000880008B9
:1032800004EB800393ED000ABDEEC00A10EE101AA5
:103290000DF80010401C0428F2D3704703A8827870
:1032A000C17840789DF80C300192029100907047EF
:1032B00051460CA801F08CB9CDE90201109800F03C
:1032C000C9BECDE90401686800F0C4BECDE90601BD
:1032D000A86800F0BFBE2A46AA21201D01F0FEB852
:1032E000252E33662025642025642025642025644E
:1032F0000A0000002531357320256620256620252B
:1033000066202566000000006164647265737300C6
:103310006164647265737320257520257520257599
:103320002025750A00000000727368756E74000035
:10333000727368756E7420252E366620252E3666CB
:1033400020252E366620252E36660A006375727299
:10335000656E745F6C7362006F75745F6469647628
:1033600069646572000000006F75745F646964765B
:103370006964657220256420256420256420256405
:103380000A000000646F776E73616D706C650000F9
:10339000646F776E73616D706C652025640A000040
:1033A0006176675F776E64006176675F776E642031
:1033B00025752025752025752025750A000000003B
:1033C0004552524F520A0000042812DA40F20441DA
:1033D000204A4843104400F580610A78531C00EBF2
:1033E00082000B7080ED000A4878FF281CBF401C4B
:1033F0004870704730B504280BDA0A0008BF012175
:1034000040F20442134B50431A1802F58063587877
:1034100010B99FED0F0A30BD18785B78401E8B42C3
:1034200038BF19460B469FED0A0AC4B202EB84046A
:103430005B1E401EDDB2D4ED000A002D30EE200AE6
:10344000F3D100EE901AF8EE600A80EE200A30BD4B
:10345000000000008402002010EE100AF44600F084
:1034600003F800EE100A6047C0F3C7527E3A09DD48
:10347000182A0CDA6FF07F41D14020EA5100401841
:103480008843704700F0004008BF40F07E5070470E
:1034900003000020521E22BF13F8010B11F801CBCC
:1034A000B0EB0C00F6D0521C08BF1046704700006D
:1034B00010B586B00446142101A8FEF73FFD22682E
:1034C000B2F1A04F31D10020804C0090216841F032
:1034D000010121600221206800F0010000904FF4FA
:1034E000C050009A0291002203920321019004919E
:1034F0000A22059201A97648FEF798F9616841F021
:1035000080016160002000900022616941F48041E7
:1035100061610021606900F48040009000984320C0
:10352000FEF7FDFA4320FEF717FB06B010BD00F2D0
:103530009C41D0F8E004FFF757B80B4624225343D0
:103540000344D0F8E004D3F86022FFF77BB80B46C1
:10355000242253430344D0F8E0041A6AFFF7AFB8BB
:10356000D0F8E004FFF744B910B50446E07902282A
:1035700018BFFEF743FCD4F8E0040121FFF721F95E
:10358000D4F8E004BDE81040FFF7EBB810B50446EE
:10359000D4F8E004FFF718F9206800F560600168CE
:1035A00041F001010160E07A20B14A48016841F030
:1035B0000601016010BDD0F8E004FFF710B9D0F8A3
:1035C000E004FFF731B9D0F8E004FFF71FB9D0F8F5
:1035D000E004FFF73FB9D0F8E004FFF73DB910B5BC
:1035E000017829BB3C4CC4F8E004C0F8C8424FF055
:1035F000A0402060042100200222A071608120737D
:10360000E0812171E2716272204600F0EBFF08B1A7
:10361000FEF7F4FB8021204601F0CDFC4022002182
:10362000204601F0A7FC80220121204601F0A2FCE7
:10363000002010BD80B5D0F8C80201F039F8BDE80F
:1036400002404EE010B51C461346D0F8C802224690
:1036500001F0A7FBBDE8104043E080B5D0F8C802F8
:1036600001F0CCFBEBE780B5D0F8C80201F00DFC0F
:10367000E5E780B5D0F8C80201F03CFCDFE7D0F800
:10368000C82201F07F0324204343D018090601D546
:10369000807D704790F85602704780B5D0F8C80218
:1036A00001F06FFBCBE780B5D0F8C80201F0CCFB8E
:1036B000C5E780B5D0F8C80201F0B0FBBFE7D0F88D
:1036C000C80201F0B9BB054870470000303802401D
:1036D0000000024010ED00E094120020541E002073
:1036E00070470146002021B1022901D10120704715
:1036F000032070474178007840EA012070470000BD
:103700002DE9FC410D460446287810F060004FF08A
:10371000000804F527770ED0202818BF402840F075
:103720003581BA6B04EB82032046D3F8B842A26815
:10373000904780462CE16978092937D8DFE811F0F5
:10374000FB00190125010E0125018B000A0025014E
:10375000E900A600ADF800806888010A012900F0A0
:103760007480022965D0032927D006291CD0072997
:1037700004BF207C002819D1FA69116B684688477C
:1037800007224270E988002900F0FC80BDF8002083
:10379000002A6ED01146EA88914288BF1146ADF8E2
:1037A00000100A460146D5E0207C002840F0ED805C
:1037B000FA69516B68468847E4E7C0B20528F5D836
:1037C000DFE800F02E251C130B03B8698269002A7C
:1037D0004FD0207C69469047D4E7B8694269002AF7
:1037E00047D0207C69469047CCE7B86902690AB99E
:1037F00000F0CBB8207C69469047C3E7B869C2683F
:103800000AB900F0C2B8207C69469047BAE7B869A7
:1038100082680AB900F0B9B8207C69469047B1E7E0
:10382000B86942680AB900F0B0B8207C6946904790
:10383000A8E7207CF9690028684603D1896A88478F
:1038400002229EE7C96A8847FAE7BB69207C1A68AA
:103850006946904796E7A888002804BFE8880028B2
:1038600059D16E88802E80F090803878032806F039
:103870007F0600F08A80BE7031462046FFF70DFFBC
:1038800000F0C2F8B6BB0121397081E0424E688871
:10389000307031780846022802D300F0B8F835E0DD
:1038A0003A78022A1BD0032A2BD129B9022038707A
:1038B000616000F074F865E06168884262D000F0F1
:1038C0006DF8317861602046FEF77BFE5FEA000804
:1038D00058D000F09CF8616800F060F80AE0002918
:1038E00050D060602046FEF76CFE5FEA000803D00F
:1038F00000F08DF8022002E000F086F80320387016
:1039000046E000F084F8317800F049F84FF0030801
:103910003EE0E888012838D13978491E012904D9C8
:10392000891E32D10122211D14E0C4F80880012231
:1039300004F108010EE03878401E022825D8EA88F4
:10394000022A22D10121E160B86808B10321E160B7
:1039500004F10C01204600F058F919E068880128AC
:1039600008BFB8600ED002280FD1A888000A3871AD
:1039700008E03878401E022807D86A88012A07D153
:10398000C7F8088000F040F802E0294600F040F84F
:103990004046BDE8F68100002A230020C9B2204637
:1039A000FEF718BEF8B50D4604462878002710F03B
:1039B00060001CBF2028402822D104F527763078EB
:1039C000401E02281CD8A988CAB2022A18D2C9B23D
:1039D0002046FEF751FFFF2810D078B9F2699068B1
:1039E00060B1B76329469268204690470746E88849
:1039F00040B9380006D100F007F803E0032701E0E2
:103A000000F005F83846F2BD204600F022B92946FC
:103A10002046BCE02DE9F8430E460546307834795F
:103A200010F060004FF0000805F527770AD0202835
:103A300018BF402875D121462846FEF71FFFFF28F2
:103A40003DD172E07078002843D0012814D00328BB
:103A500067D13978022915D0032962D1708838B925
:103A6000002C18BF802C03D0F08808B900F076F83D
:103A7000284600F0EEF858E03878022802D00328F3
:103A80000AD04EE0002C18BF802C4AD000F066F817
:103A9000802100F064F848E07088002845D114F0D7
:103AA0007F0103D021462846FFF7E3FD284600F0BA
:103AB000D0F821462846FEF7E1FEFF2835D0A0BB0E
:103AC000B863F9698A6882B33146284690478046D0
:103AD0002BE0142204F07F003B7850432918022B7E
:103AE00001F5AA7904F0800002D0032B10D018E071
:103AF000002C18BF802C14D108B101F1140989F8E9
:103B00000E80022209F10E01284600F07EF80CE03A
:103B100004F00F0312FB03F22A4448B192F8230089
:103B200080B93146284600F032F84046BDE8F283BD
:103B300092F863010028F4D0002C18BF802C04D127
:103B4000002008E001F11409F6E721462846FFF7B6
:103B500096FD00B1012089F80E00D2E721462846E3
:103B6000FFF781BD38B50D46044628782070A81CA3
:103B7000697861702D1DFFF7BDFD60802846FFF755
:103B8000B9FDA080A81CFFF7B5FDE08031BD10B5E0
:103B900004468021FFF767FD2046BDE81040002164
:103BA000FFF761BD70B504000D46164622D000F047
:103BB00022F84000801C40F20111884228BF4FF4D7
:103BC000807004D2204600F016F84000801C30803F
:103BD00003213078287069700023022107E014F86F
:103BE000010BCAB2491CA854CEB2491CAB5520786F
:103BF0000028F4D170BD0146002000E0401C11F8FF
:103C0000012B002AFAD1C0B2704780B513460222B8
:103C1000C0F8942241624361836101E080B513469C
:103C20000A460021FFF73FFD002002BD80B5134684
:103C30000322C0F8942200F5AA7213601161536048
:103C400001E080B513460A460021FFF732FD00204F
:103C500002BD80B50421C0F8941200230022E0E7E1
:103C600080B50521C0F8941200230022ECE7000083
:103C70000022FDF7D1BD00002DE9F843754F06463F
:103C8000387E894614461D46012808BF022028D0E8
:103C9000012038764CF25038404600F03CF80100E4
:103CA0001DD1484622462B461EB9D1B200F08EF8EF
:103CB0000DE0012E03D191B200F072F807E0022E60
:103CC00003D1114600F063F801E000F04CF84046E3
:103CD00000F021F860490A68520852000A60002189
:103CE0003976BDE8F2835E49CA680020002A00D414
:103CF000704710B55B4A5C4C0A600C60C9680029CB
:103D000048BF012010BD5448016841F00041FFE761
:103D100001600020704770B504464E494F4E0020A8
:103D2000C861FDF7E7FC05463068C1030AD514F108
:103D3000010FF9D024B1FDF7DDFC401B8442F3D222
:103D4000032070BD3068C10744BF01203060346873
:103D500014F4F97F18BF00F043F814F4F97018BF99
:103D60000120C0B270BD30B53B490C6824F44074EA
:103D70000C600D6845F440750D600C6844F001045A
:103D80000C6040F8042BBFF36F8F036030BD10B59B
:103D900000F015F844F4007400F00BF8016010BD59
:103DA00010B500F00CF844F4807400F002F80180C3
:103DB00010BD1460136843F0010313607047264A76
:103DC000136823F4407313601468704730B5FFF72D
:103DD000F6FF1460156845F001051560017030BDEF
:103DE0001E491C480A68D30605D5C26942F0100274
:103DF000C26110230B600A68930605D5C26942F0C0
:103E00000802C26120230B600A68530605D5C26907
:103E100042F00402C26140230B600A68130605D514
:103E2000C26942F00202C26180230B600A68D305B6
:103E300006D5C26942F00102C2614FF480730B6083
:103E40000A68930705D5C26942F02002C2610220C8
:103E50000860704780230020103C02400C3C024068
:103E6000043C024023016745AB89EFCD2DE9F047C3
:103E7000524E0446307E8946012808BF02203CD0BD
:103E8000012030764CF2503A5046FFF744FF80460E
:103E900080BB4FF0FF31C9F800102068484D012861
:103EA0000DD120696168C0B200F029F85046FFF7D3
:103EB00032FF8046286820F00400286018E0A768D8
:103EC00000E07F1CE168A06841188F4210D2216990
:103ED000C9B2384600F023F85046FFF71CFF5FEAEE
:103EE0000008286820F0FA002860EAD0C9F80070BD
:103EF00000F03BF8002030764046BDE8F0873049BE
:103F00000A6822F440720A600B6843F004030B60F5
:103F10000A6842EA002242F480320A60704710B513
:103F200000220B000AD0012908BF4FF4807205D08F
:103F300002290CBF4FF400724FF4407220490B6805
:103F400023F440730B600C6822430A600A6822F075
:103F5000F8020A600B6843EAC00343F002030B60F7
:103F6000086840F48030086010BD164801688A0572
:103F70000FD5016821F400710160026842F400620B
:103F80000260016821F400610160026842F400727D
:103F9000026001684A050FD5016821F48061016063
:103FA000026842F480520260016821F4805101608D
:103FB000026842F4806202607047000080230020A3
:103FC000103C0240003C024001F000428B1AA3F179
:103FD0006051B1F5801F0ADBB1F17F6F1FD242EA59
:103FE000C102C10071F1004142EB507070470B15E6
:103FF000C3F10903212B10D2890241EA90518002BA
:104000000128494141F0004121FA03F0C3F12003A6
:10401000994071F1004150417047100070476FF0B6
:10402000000013EB103F5CBF000E42EAC050704727
:1040300010F0004160B148BF4042B0FA80F29040B9
:10404000D21CC2F5846241EA025202EBD021400543
:1040500070470000C0F3C75181B1FF2906D0C110DD
:10406000400721F0E04101F16051704741020CBF6F
:1040700040F4E0016FF000410020704700F0004183
:1040800000020AD0B0FA80FC00FA0CF001F1605195
:10409000A1EB0C5101EBD0214005704730B540F247
:1040A000FF7C1CEA11541DBF1CEA1355644565458D
:1040B0003FE0641981EA030C6FF35F530CF0004C8E
:1040C00043F48013C90241F0004141EA505EC50249
:1040D0001100A5FB020200284FF00000EEFB0120BA
:1040E0004FF00001E3FB052118BF42F00102401828
:1040F00000214941E3FB0E01A4F580640D0302D2C7
:1041000092184041494154F1010470DD450872F1B3
:10411000004250F1000051EB0451A1F5801102D48E
:1041200041EA0C0130BD40F2FF7E4CEA0E51002006
:1041300030BD0CEA1355644518BF654581EA030C90
:104140000CF0004C41D050EA410E1CBF52EA430E25
:1041500002E06146002030BD24422C441BD15FEABE
:10416000050EF6D0090302BF01460020AEF1140E81
:10417000B1FA81F5AEEB050401FA05FE0C35C5F187
:10418000200100FA05F5C8404EEA000E6FF35F53B8
:1041900043F480139CE733F00043B3FA83F504BF84
:1041A000B2FA82FE75440B3D641BB5F1200E2FBFA1
:1041B00002FA0EF3AB40C5F1200E22FA0EFE38BF14
:1041C00043EA0E03AA40641C7CE750EA410E14BF88
:1041D00052EA430E6FF000014FF4001515EB430F48
:1041E0008EBF194615EB410F9DE7B4D830BDD4F111
:1041F0000104B4F120050FDAC4F12005520828BFEC
:1042000042F0010210FA05FE01FA05F57244E2BF20
:10421000E0402843E1400FE0352C9ADCC5F1200452
:1042200052EA400220FA05F218BF42F0010231FAC8
:1042300005F0A1400A43002172F1004250F1000054
:1042400051EB0C0130BD0000F0B540F2FF7581EA82
:10425000030C0CF0004C15EA11541DBF15EA13575E
:10426000AC42AF42E5E0BC41C1F31301C3F3130319
:10427000801A994143F4801304D2641E0018494106
:1042800080185941C90241EA5051B1FBF3F603FBD2
:104290001611A2FB0675D7EBC020A94102D2761EEB
:1042A00080185941C90241EA5051B1FBF3FE03FBAA
:1042B0001E11A2FB0E75D7EBC020A94103D2AEF1AF
:1042C000010E80185941890241EA9051760546EA6B
:1042D0008E2EB1FBF3F603FB1611A2FB0675D7EB8E
:1042E0008020A94102D2761E80185941C90241EAB4
:1042F00050514EEA060EB1FBF3F603FB1611A2FB7A
:104300000675D7EBC020A94102D2761E801859410C
:10431000C90241EA5051B1FBF3F703FB1711A2FBAD
:104320000735D3EBC020A94167F100070CBF00425D
:1043300047F0010766F3D5274FEA1E31B80814F598
:10434000806412DDBD0775F1004250EB0E5051EB59
:10435000045111F5801F5CBF41EA0C01F0BD4CF027
:104360007F6141F0E0410020F0BDBD076D0840EAEB
:104370000E5041F48011D4F10104B4F120060ADAA0
:10438000C4F120060200E04001FA06F3E1401843C0
:10439000B24015430EE0342C13DCC6F1200445EA8C
:1043A00040056D0820FA06F2154321FA06F0A140F7
:1043B0000D43002175F1004250F1000051EB0C015A
:1043C000F0BD00205FEA0C01F0BDCFB992185B414F
:1043D000B3FA83F704BFB2FA82F6BF190B3FB7F105
:1043E00020062FBF02FA06F3BB40C7F1200622FACF
:1043F00006F638BF3343BA401CB1E419641E33E7F4
:104400007F4231F00041B1FA81F404BFB0FA80F686
:10441000A4190B3CB4F120062FBF00FA06F1A1400D
:10442000C4F1200620FA06F638BF3143A0403C1BF9
:104430001AE7AC421ABF05EA1357AF4212E050EA3E
:1044400041061CBF52EA4306BFE750EA4107304627
:1044500061461CBF41EA0551F0BD52EA430C08BF5A
:10446000C143F0BD00204FF4001616EB410F98BF7A
:1044700016EB430F08BF16EB410F24BFC14305E005
:1044800016EB430F0CBF61464CEA0551F0BD00002E
:10449000400D40F21E4C40EAC120BCEB115C40F0E4
:1044A000004003D48CF30701C84070476FEAE17005
:1044B0007047000038B50446FDF71CF914F1010FF0
:1044C000054602D0044801786418FDF713F9401B33
:1044D000A042FAD331BD00BF0801002008B410B5D6
:1044E00085B007AB00240493039400290EBF019408
:1044F0000190491E0291009404AB01A90748784439
:104500001A3000F060FD019901B10C70002858BF0D
:10451000039805B010BC5DF808FB00BFE3D2FFFFB5
:1045200038B5194C194D002205F500712046FEF7EB
:1045300086FB29462046FEF791FB002032BD002075
:1045400070470020704738B50446FEF76CFD0E4DED
:1045500021462846FEF782FB2846FEF7A2FB0020F4
:1045600032BD10B5084CD4F8BC320A46D3F8141248
:1045700009B1012010BD01462046FEF760FB204630
:10458000BDE81040FEF777BB781B002078170020AD
:104590000020704700F1010310F8011B11B110F861
:1045A000011BFBE7C01A70470DB41EB506A80190A9
:1045B0000A460024009401AB05A9044878440C3055
:1045C00001F08EFC03B010BC5DF810FB37D1FFFF8B
:1045D00010F8012B11F8013B0AB19A42F8D0D01A19
:1045E000704700007CB5040053D0266804F294455F
:1045F000687820B9002129702046FEF759FF032072
:104600006870B6F1A04F04BF0020A071206802F0CE
:10461000A8FB83B000F047F80EBC206802F0F6FA61
:10462000002834D12068002102F0A1FB78BB0021D2
:10463000242000260DE010FB01F2224401235375D3
:104640001175D1850023491C1376D6611362566219
:10465000C9B222799142EEDB00210DE010FB01F29C
:10466000224402F51572002311705370491C167113
:104670009360D6601361C9B222799142EEDB83B0B8
:1046800000F011F80EBC206802F09DFB18B102206A
:104690006870012076BD607401216970206802F0A5
:1046A000C9FE002076BD211D68460D22FEF782BBA3
:1046B00010B500F057FB01D1022010BD00F04CFBFB
:1046C00001D500F056FB02F048FB20683EE32DE9DF
:1046D000F84F054686B028680290019002F0E9FE86
:1046E000002840F0288300F029FB002800F02383F5
:1046F000019800F5006005F2CC418268C2F30D20FC
:10470000886000F01BFB800704D52868416901F030
:104710000201416100F012FBC00633D528688169AF
:1047200021F01001816105F515710298066A06F005
:104730000F02242042438C18C6F3434002280FD1B5
:1047400047F6F070064218D0E1680298C6F30A12E4
:1047500002F005FEE068C6F30A110844E06007E0D5
:1047600006280AD10298082205F29C4102F0F7FDC2
:104770006169C6F30A10411861612868816941F0D6
:10478000100181612868019E02F062FE000306F5B7
:10479000006640F1D0802868DFF8A8B502F05DFE21
:1047A00000242F4605004FF4004A63E0002C04BFAC
:1047B000D7F86402002809D107F29C42002118466C
:1047C00002F087FE02E008B120209060E1B2384696
:1047D000FEF7B3FE5FEA08701FD50821C9F808107C
:1047E0003868016C039100EB441000F5306081687B
:1047F000039A5A4503D3090448BFC0F808A03846B5
:10480000FEF795FE0398584507D3B979012904D1DD
:10481000386807F29C4202F05CFE5FEAC86044BF61
:104820001021C9F808105FEA887014D50299486908
:10483000010603D5706840F4806070600098C1780C
:10484000012905D10022C270E1B23846FEF7B7FE59
:104850000220C9F808005FEA886044BF2021C9F837
:1048600008105FEA884044BF4FF40051C9F80810AF
:10487000641C6D085ED0E807FAD53868E1B202F032
:10488000FAFD8046019800EB441000F530692421C0
:1048900007F51570614301445FEAC870009199D52E
:1048A0000121C9F808103B68196C03EB441202F5AA
:1048B0003062D2F808C097F806E0BEF1010F0CF0A4
:1048C00020002BD15FEA0C7305D5594582D35FEAEE
:1048D0000C412CD47EE710B1202090607AE71CF0C8
:1048E000280FFBD1594502D35FEA0C411FD4009831
:1048F00000F10C0148691269C2F31202801A002CFF
:1049000088600AD1486820B9386807F29C420121C2
:1049100056E708688A6802440A6057E7DFF828E427
:1049200071457FF443AF5FEA0C417FF54CAFC2F8AD
:1049300008A04FE73D4600F001FA400340F1BB807C
:10494000286802F091FD0390002438E0401A059990
:10495000D1F808A0824588BF82460AF103004FEAD9
:10496000900BA87900901FFA8AF37968E2B2484662
:1049700002F0E2FC7868F96850448A447860C7F82D
:104980000CA009EB441000F51060816989B259450B
:1049900005D3B868F968814201D20028D6D1F868F9
:1049A000B968884207D309F50068D8F8341004982C
:1049B0000140C8F83410641C039840080390039821
:1049C000002878D0C107F6D52868E1B202F05EFD74
:1049D0008046019800EB441000F510692420012264
:1049E00000FB04FA04F00F00824005EB0A01D243F9
:1049F0005FEAC87301F11C0704921CD5726B04981E
:104A0000024072630122C9F80820A87901280ED15A
:104A1000086A3A6802440A62002C04BF686A0028E7
:104A200005D1286805F29C42012102F052FDE1B255
:104A30002846FEF78CFD5FEA087044BF0821C9F8DC
:104A400008105FEAC86044BF1021C9F808105FEA87
:104A5000486044BF4021C9F8081005F114005FEA1E
:104A60008871824411D50298214602F061FA9AF8C1
:104A70000310012906D100228AF80320E1B228465A
:104A8000FEF7A1FD0220C9F808005FEA086092D590
:104A9000F968B868D5F8009088428CD3DAF808B085
:104AA000401A834588BF83460BF103004FEA900B01
:104AB000CDF814A065E700F041F9002805F2CC44D8
:104AC00014D571684908490071602078012805D122
:104AD00000212170284602F08FFD02E02846FEF7F3
:104AE0006AFD2868416901F00041416100F026F942
:104AF00000050AD5B168C80744BF2846FEF746FD41
:104B00002868416901F40061416100F017F9C004AF
:104B100051D571684908490071601021286802F078
:104B200007FA019800214FF67F3214E000EB4113A1
:104B300003F5106603F53063B260491C376827F44B
:104B4000001737609A601E6826F400161E601F6802
:104B500047F000671F602B799942E7D3019000F579
:104B60000061C86940F00110C861E87B50B1D1F81C
:104B7000840040F00B00C1F88400486C40F00B004A
:104B8000486409E0486940F4005040F02B00486157
:104B9000086940F00B00086105F29C42086820F4A7
:104BA000FE600860A979286802F093FC28684169D2
:104BB00001F48051416100F0C1F8800415D52868E6
:104BC00002F07BFC286802F0FBF9E871FCF776FD47
:104BD0000146EA79286802F059F82846FEF7C4FC35
:104BE0002868416901F40051416100F0A7F800070D
:104BF00007D52846FEF7B4FC2868416901F0080192
:104C0000416105F2572700F099F8000613D5029983
:104C1000886920F080008861012609E02420704323
:104C2000395C012903D1F1B2284600F095F9761CD0
:104C300028798642F2D300F081F8C00225D5019E82
:104C400001274FF0240817E006EB471000F510602D
:104C500008FB07F1006805F11802535C012B0AD12B
:104C6000002808D529440122CA7547F08001C9B23D
:104C7000284600F071F97F1C28798742E4D3019619
:104C80002868416901F48011416100F057F8800201
:104C900036D5029A019B0120242100E0401C2E7988
:104CA000B04228D203EB401606F5306C01FB00F74A
:104CB0002F44DCF8006007F2572797F801C0BCF1D9
:104CC000010FEBD1002EE9D594F808C0C6F30046D9
:104CD0000CF0010C6645E1D101263E70976947F062
:104CE0008007976156693706D8D403F50063586882
:104CF00040F4007058602868416901F40011416176
:104D000000F01CF8400007D52846FEF760FC286834
:104D1000416901F08041416100F010F840070AD577
:104D200029684C68600744BF2846FEF754FC286891
:104D300041680C43446007B0BDE8F08F286802F07A
:104D400087BB00000B30544F0A31544F02F066FB12
:104D5000002084F8940410BD012284F89424CB68C8
:104D60005A067047044694F894242068012A0146A4
:104D70007047637B012B03D18A6B42F480328A63D4
:104D8000704710B5044694F89404012801D102201C
:104D900010BD012084F894046174206802F030FB97
:104DA000D6E738B5054601F00F04242044432819FE
:104DB0000C0647BF00F11404012000F51574002013
:104DC000607001F00F012170C2F30A026078A260E6
:104DD000237108B121786183022B04BF0020607128
:104DE00095F89404012801D1022032BD012085F8F4
:104DF00094042146286802F0F1F877E010B50446E3
:104E000001F00F0200F09AF800F08BF801D10220B7
:104E100010BD00F08DF802F017F999E738B500F0F1
:104E200026F804F5157401F00F012361002500F048
:104E300024F808BFE26113E001F00F01242251437E
:104E40000844D0F86802704738B500F010F8143400
:104E500001F00F012361012500F00FF808BFE261A6
:104E600082790068214602F035F9002032BD01F058
:104E70000F05242465434419704700232170E26024
:104E80006361657081790129704738B505460C4624
:104E9000297904F00F00814201D2012032BD242182
:104EA000220605D54843284400F11401012005E0FD
:104EB00011FB04F1681800F51571002048700122FB
:104EC0008A7004F00F040C7095F89404012801D145
:104ED000022032BD85F89424286802F060FA2CB9CB
:104EE000A979286805F29C4202F0F3FA002085F8BF
:104EF000940432BD10B5044601F00F0220799042AF
:104F000001D2012010BD00F019F80023837000F0D9
:104F100008F801D1022010BD00F00AF802F057FA9B
:104F200016E701F00F01017094F8941401297047FD
:104F3000012284F8942401462068704724204243CB
:104F4000A0180A0603D5143001234370704700F5FA
:104F5000157000224270704701F00F032422534362
:104F6000C21809064CBF02F1140102F51571006860
:104F700002F094B970B50068436A0C0003D143EAAB
:104F80000242826215E0846A03EB1443002406E0C7
:104F900000EB8505641CD5F8046103EB1643E5B20C
:104FA0004E1EB542F4D300EB810043EA0242C0F842
:104FB0000021002070BD00684162002070470000A1
:104FC00040F0200070472DE9F14FB0B092460491B7
:104FD0000DF142013A9A2B9199464A7000200AE05D
:104FE0001AF8011B0498309A90470028049000F0AA
:104FF00044860D98401C0D909AF8000058B1252861
:10500000EED10020002100220790089109920A9118
:105010000B920C9104E00D9800F031BE41F00101BB
:105020001AF8010F2028F9D023280CD02B2804D0FF
:105030002D2805D0302809D00BE041F00201EFE720
:1050400041F00401ECE741F00801E9E741F010010B
:10505000E6E72A280FD1D9F8002052F8040BC9F846
:10506000002000280F9003D540420F9041F004012A
:105070000AF1010A14E00F92DFF8082C0AE00F9BF6
:10508000934205DA03EB830400EB440030380F90C1
:105090000AF1010A9AF80000A0F130030A2BEED3BE
:1050A0009AF800202E2A03D04FF0FF300E9029E00E
:1050B0001AF8010F2A2809D1D9F8002052F8040B58
:1050C000C9F800200E900AF1010A1BE02D280CBF40
:1050D0000AF1010A002000220E92DFF8A84B0BE033
:1050E00040B90E9BA34205DA03EB830502EB4502B0
:1050F000303A0E920AF1010A9AF80020A2F1300328
:105100000A2BEDD3ADF840100FF67C309AF8001062
:1051100002F074FA08B11AF8010B8DF842009DF8FC
:105120004200682805D19AF8001068290CD1622045
:1051300006E06C2804BF9AF800106C2904D1712095
:105140008DF842000AF1010A12AA06921AF801BB70
:10515000BBF125002CD01C3800F09781001F0228DD
:1051600040F29381133800F0BA84093800F08D8141
:10517000801E00F04F85401E00F0FC84401E022877
:1051800040F28381001F00F0F584401F00F0F280A0
:10519000401E00F0A484401E00F0DA80C01E0ED035
:1051A000801E00F09C84C01E00F0998400F03DBD7C
:1051B0000122252107928DF8481000F042BDD9F850
:1051C000000050F8044BC9F80000002C059440F092
:1051D000AB802B994878002800F0A1804FF0FF3475
:1051E0000FF6AC2002F016FA241A40F0468500F0C3
:1051F00028BD01236A4602A9304600F00DFE0028B2
:1052000040F03B85641EF4D13096079C12AF74B118
:10521000309E17F8011B0498B0470028049000F056
:105220002C850D98401C641E0D90F2D130960A9C7E
:105230003021002C8DF800100CDD309E01236A46D1
:1052400002A9304600F0E8FD002840F01685641EF3
:10525000F4D13096059F089C74B1309E17F8011B5D
:105260000498B0470028049000F007850D98401C72
:10527000641E0D90F2D130960B9C3021002C8DF8DD
:1052800000100CDD309E01236A4602A9304600F072
:10529000C3FD002840F0F184641EF4D130960598D7
:1052A0000899099C471874B1309E17F8011B04989F
:1052B000B0470028049000F0E0840D98401C641E64
:1052C0000D90F2D130960C9C3021002C8DF80010FE
:1052D0000CDD309E01236A4602A9304600F09CFD99
:1052E000002840F0CA84641EF4D130969DF8400036
:1052F00041077FF581AE2020002D8DF800007FF75B
:105300007BAE309C01236A4602A9204600F084FD52
:10531000002840F0B2846D1EF4D130946CE60FF694
:105320005830059000F08DBC0E9D002D04D5204610
:10533000FFF730F9044608E02A460021204602F033
:1053400089F9002814BF041B2C46089400F079BC8E
:10535000D9F8001051F8040BC9F8001020F0000231
:10536000002121F0FF33CDE9022312AC059478210E
:1053700000F04CBC2B99487820B14FF0FF340FF669
:10538000C8202FE79DF84200622860D0682817D017
:105390006A283FD06C2806D0712847D074282CD0BA
:1053A0007A281DD062E0D9F8001051F8040BC9F832
:1053B0000010002866D14FF0FF340FF6A42011E74B
:1053C000D9F8001051F8040BC9F8001020B94FF0BB
:1053D000FF340FF68C2005E70D99018000F031BCF9
:1053E000D9F8001051F8040BC9F80010002849D171
:1053F0004FF0FF340FF66820F4E6D9F8001051F8AA
:10540000040BC9F8001000283CD14FF0FF340FF610
:105410005020E7E6D9F8001051F8040BC9F8001045
:1054200080B94FF0FF340FF63820DBE6D9F80010D2
:1054300051F8040BC9F8001020B94FF0FF340FF6F3
:105440002020CFE60D9AD317C0E90023F9E3D9F85D
:10545000001051F8040BC9F8001020B94FF0FF34C8
:105460000FF6FC10BEE60D990170EAE3D9F80010C2
:1054700051F8040BC9F8001020B94FF0FF340FF6B3
:10548000E010AFE60D990160DBE39DF842004C2887
:1054900007BFD9F80010CA1DD9F80000C21D22F0BC
:1054A0000702C9F80020D2E900010832C9F800203B
:1054B000CDE90201C80F02D007982D210AE0BDF8FE
:1054C0004000810702D507982B2103E0C00705D5CE
:1054D0000798202112AA1154401C079012A807997E
:1054E0004BF0200300EB010CDDE90201CDE92C01BA
:1054F000612BCDF814C021AC0BD00E98002848BF0A
:10550000062105D404BF4BF02000672801D10121FA
:105510000E91DDE902014F0047EAD0777E15FF17B3
:105520004FF0FF32974208BF964210D1090341EA7B
:1055300010510003002908BF002808D0ABF1610515
:1055400003211A2D089118D30FF6341110E0DDE96C
:1055500002014A00521512F1010F11D108030FD1B7
:10556000ABF1610503211A2D08911FD30FF6181115
:1055700003226046FDF71EFC63E30FF60011F7E718
:10558000DDE902016A4602F091F8CDE902014BF033
:105590002000612811D1059830220270811C0591EC
:1055A000BBF1610F0CBF7821582102E00FF6D40146
:1055B000DEE741700798801C0790DDE9020120F0CA
:1055C000000231F0004308BF002A02D10026002566
:1055D00042E14BF02008B8F1610F40F092800E9943
:1055E000002947BF21200190491C0191019FDDE95D
:1055F0002C017F1C00220023DDE9024502F08EF819
:1056000038BF85F0004500988DF88420001F002FDA
:1056100000900DF1850632DD204629460022002348
:1056200002F096F82BD21C2202F0ACF804460D468C
:1056300002F046F9FF1F002F804609DDFEF7F8FC57
:1056400002460B462046294602F014FA04460D464F
:10565000F01D0721B8F1000F0CDD491E5EBF08F0F8
:105660000F0200F8012D4FEA2818F3D502E00022BE
:1056700000F8012D491EFAD5C61D002FCCDC0DF116
:105680008500361A01980DF185048642D8BF304650
:1056900000282FD4B04206DA0DF185010A5C082AF1
:1056A000A8BF0F2100DA0021024621AB134400E01D
:1056B000401E13F80159521E8D42F9D00F2904D112
:1056C0000DF185018B5C5B1C8B54002A04D500997D
:1056D000091D21AC401C0091411E0BD462181378A7
:1056E0003033DDB23A2DA4BF5B443A3B491E02F889
:1056F0000139F4D50E9A002A40F1AC80411E0E917A
:10570000A8E00099DFF8002747F29750414391FB4A
:10571000F2F20092DDE92C45C2F10702002A25F0E1
:10572000004504DD2046294600F04AFB0BE05242CA
:105730000020DFF8D81600F043FB02460B46204657
:105740002946FEF781FD04460D46B8F1660F06BFF7
:10575000009F0A3706270E983F18142FC8BF14273A
:1057600030208DF884000DF18506002F34DD2046B1
:105770002946FEF78DFE01460A4606F1080304207D
:105780000A26B2FBF6F606EB860EA2EB4E0230328C
:1057900003F8012C0A22B6FBF2F202EB820EA6EB12
:1057A0004E063036401E03F8026DE9D1083F002F47
:1057B00003F10806D9DD084602F0CEF902460B4691
:1057C0002046294602F056F90022DFF84436FEF75B
:1057D00065FC04460D46CAE70DF18500361A0DF149
:1057E000850404E00098401E761E0090641C20781A
:1057F0003028F7D0B8F1660F02D10098401C04E0C1
:10580000B8F1650F0CBF012000200E9940188642A8
:10581000B8BF701E00281DD4B04204DA215C3429C0
:10582000C8BF392100DC30210246631E9D1800E00C
:10583000401E15F80169521E8E42F9D0392902D155
:10584000A15C491CA154002A04D50099491C1C469E
:10585000401C00910646009D02F0ACF9406A0778B2
:10586000DDF8388030B2002802DC01260FF21C641B
:105870004BF02000662808BF6D1C16D0672845D164
:1058800028B210F1040F47DB404545DA9DF840008F
:105890006D1C010703D430B24045D8BF804628B202
:1058A000B8EB000848BF4FF000080FFA85FBBBF1CA
:1058B000000F00F3B3800898411C0891302205992D
:1058C0000A54B8F1000F03DC9DF84000010704D52D
:1058D0000898411C089105990F5418EB0B0FB8BF9D
:1058E000C8F100052DB26842454432B20B90954292
:1058F000B8BF2E46059B089836B209963246214617
:105900001844FDF757FAAD1B0C95D1E0BBF1610FC0
:1059100017D14FF0700B19E030B2404504DA9DF812
:1059200040100A0758BF8046B8F1010848BF4FF041
:105930000008BBF1670F14BF4FF0450B4FF0650B2C
:1059400004E0BBF1410F08BF4FF0500B0898411C19
:105950000891B8F1000F059914F8012B0A5403DCE3
:105960009DF8400001071AD50898411C0891B8F12C
:10597000000F05990F5412DD761E30B28045B8BF76
:1059800046460598089B32B221461844FDF712FAA4
:10599000089836B230180890A8EB06000B900598CE
:1059A0000899014428B2002881F800B003D42B20C4
:1059B0004870891C04E02D224A700546891C6D42FE
:1059C00000202CAA0AE02B460A2593FBF5F505EBEF
:1059D0008504A3EB440302F8013B401C2DB2002DCB
:1059E000F1DC012806DC4BF02002652A04BF3022DE
:1059F00001F8012B00282CAA08D1302001F8010B56
:105A000006E0401E135C303301F8013B0028F8DC4F
:105A1000059A08981044091A099149E030B229B250
:105A200088421CDA0598089B32B221461844FDF7DB
:105A3000C1F9089936B271180891ABEB0600B8F1BC
:105A4000000F0B9003DC9DF84000020704D5059879
:105A500047540999491C0991CDF8308028E00598F0
:105A6000089B2AB221461844FDF7A4F90898761B32
:105A70005844B8F1000F089003DC9DF840100A0765
:105A800003D5411C089105990F5430B28045B8BF29
:105A900046460598089B32B204EB0B011844FDF70B
:105AA00089F9089836B230180890A8EB06000B90D8
:105AB0009DF8400000F01400102840F0C280079AC2
:105AC00008980B99821809988A1882180C980F99CF
:105AD0008018884280F2B580081A0A90B1E09DF8DB
