:020000040800F2
:10000000C027002009870008698600086B86000861
:100010006D8600086F8600087186000800000000E9
:1000200000000000000000000000000073860008CF
:1000300075860008000000007786000879860008B1
:100040002187000825870008298700082D870008D8
:100050003187000835870008398700083D87000888
:100060004187000845870008498700084D87000838
:100070005187000855870008598700085D870008E8
:100080006187000865870008698700080000000094
:100090000000000000000000000000006D87000864
:1000A0007187000875870008798700087D87000838
:1000B0008187000885870008898700085D17000888
:1000C000631700088D87000891870008958700084E
:1000D000998700089D870008A1870008000000009C
:1000E000A5870008A9870008AD8700080000000068
:1000F000000000000000000000000000B1870008C0
:1001000000000000B5870008B9870008BD87000817
:1001100000000000000000000000000000000000DF
:10012000C1870008C5870008C9870008CD87000877
:10013000D18700080000000000000000000000005F
:100140000000000000000000000000007D860008A4
:10015000D5870008D9870008DD870008E1870008F7
:10016000E5870008E98700080000000000000000A3
:10017000000000000000000000000000000000007F
:1001800000000000ED8700080000000000000000F3
:10019000F1870008F8B5040025D004F13C05697822
:1001A00021B900202870204601F086F924226A70C7
:1001B0002068DFF81474016849084900016020686C
:1001C000026842F4004202602068016821F40041A4
:1001D000016001F036FA01466068B84205D2DFF8E6
:1001E000EC23914205D20120F2BDDFF8E403814205
:1001F000F9D32068DFF8DC234368B1FBF2F29B09F6
:1002000042EA8313436023681E6A6068B84206D3DB
:100210004FF4967042434FF47A70B2FBF0F2521CE6
:10022000B60942EA86121A62491E2268D3696668D4
:10023000BE4206D2760000F044F8042913D204210D
:1002400011E0A06820B906EB460600F03AF805E098
:100250001920464300F035F841F4804108050CBFF1
:10026000012141F40041DFF8700303400B43D361E7
:1002700022681368E069216A23F0C00303430B433B
:1002800013602268DFF85403936821690340E06833
:100290000B43034393602268D368A06961691B0A1A
:1002A00040EA03230B43D36020212068026842F018
:1002B0000102026000206860697020630021A9705B
:1002C000F2BDB1FBF6F1491CC1F30B0170470068A8
:1002D00041690A0644BF0021016170472DE9F843D6
:1002E00004460E461546994601F0C4F904F13C0750
:1002F00080467878202808D1CDF800801923012283
:10030000DFF8DC1200F0C4F8002840F0878038786D
:10031000012800F0838000F0AAF8206800F0A0F81F
:10032000102100F0B8F82085DFF8B802E062E16A39
:10033000082918BF012904D081421CBF206B122854
:1003400001D100F066F9CDF800800022089D2B460F
:1003500000F09CF838B120680168CA0555D54FF403
:100360000070786051E02069B0F5804F04D12168B9
:1003700006F0FE060E6112E0F009216800F00600AA
:1003800040F0F000086143462A46DFF85C12204640
:1003900000F06CFF002838D12068F6B206614346B1
:1003A0002A46DFF84812204600F060FF00282CD1D2
:1003B00000F037F8208D002829D04246294600F069
:1003C00062F8E8B9626A216810780861606A411CC5
:1003D000616200F0BEFC208D401E208521684A69C4
:1003E000530706D580B220B1606A02780A6100F036
:1003F0002DF842462946204600F0B3FF0028D9D008
:100400007868042801D100F088FE012007E000F0A0
:1004100084FE04F13C0000F046F800E00220BDE854
:10042000F2830090206841690091826900920099EE
:1004300070471A461146106820F4806008607047C3
:100440002868016841F4007101607047606A411CCE
:100450006162608D411E6185208D411E218570473E
:10046000016821F400610160212078707047012249
:100470003A7020680168CA0703D4016841F001019D
:10048000016070474146204600F049BF4FF001111E
:10049000204600F0B5BEB970002078606562A4F80F
:1004A0002A90608D70472022427000218170017077
:1004B00000207047F8B500F06CF80AD100F075F82C
:1004C00000F096F818B100F06CF8F9D403E000F0F1
:1004D00094F80220F2BD04F13C000578012DF8D01B
:1004E00000F025F8212500F035F800F092F8002002
:1004F000F2BDF8B500F04DF80AD100F056F800F062
:1005000077F818B100F04DF8F9D403E000F075F871
:100510000220F2BD04F13C000578012DF8D000F076
:1005200006F8222500F016F800F027F8F2BD0126A3
:10053000067025682F68FE0705D427683D683E468B
:1005400045F001053560102625682F6827F40067FF
:100550002F60704745708670002545606262638534
:10056000628DDFF880302285E3628160057020684B
:10057000426842F4E062426070472068016841F4DA
:10058000806101602068026842F48072026000208D
:10059000704704460020009004F13C05687820284C
:1005A00070472568A86985077047DFF874000668FA
:1005B0001927B6FBF7F74FF47A75B7FBF5F5192055
:1005C0004543009570470000A186010080841E000D
:1005D00000093D0040420F000030FFFF007CFFFF9C
:1005E000020010000000FFFF0800010002000100EF
:1005F0000098401E0090009870472063202104F16D
:100600003C00002241708270416841F0200141604D
:1006100070472068016841F48071016070470000F4
:10062000C0000020416841F48051416070472DE9CD
:10063000FC41044604F13C052168DFF8EC6A4B6894
:10064000E06A95F802C06F780022BCF1100F18BF65
:10065000BCF1400F40F04E828A69D1F814E05FEAA5
:10066000CE7805D4B0F52A0F18BFB0F12A4F47D085
:100670005FEACE7045D5980543D5E06AB0F52A0FFC
:1006800008BF012204D0E06AB0F12A4F01D108224C
:10069000E262A878402809D168690028A8681ABFD2
:1006A00040F00100C0B200F0FE0028E02069B0F583
:1006B000804F16D168782128A8680EBF00F0FE0090
:1006C00040F00100C0B20861606B00281CBFC06B25
:1006D00000282AD1A06B00281CBFC06B00280FD0B7
:1006E00023E0686920B900F011FB40F0F00006E05B
:1006F0006869012804D100F009FB40F0F1000861AD
:1007000002E35FEA0E7015D5980513D5A868C0B24C
:100710000861606B00281CBFC06B002805D1A06B6E
:1007200000281CBFC06B0028EAD02068416841F453
:10073000006124E15FEA8E7000D5980540F1A18048
:10074000AF78E26A236B6878222840F09780686966
:10075000002808BF402F03D100F0E5FA009AD3E249
:100760006869002804BF2069B0F5404F09D100F046
:10077000E0FA084642F4807202606969491C6961C6
:10078000C2E2608D30B900F0D4FA0B4642F4007238
:100790001A6070E0608D012839D1B24217D10A4643
:1007A000FFF749FE21684868020507D50B4600227D
:1007B000186820F48060086000925AE000F01BFB8B
:1007C00021680A68084642F40072026053E0082A71
:1007D00018BF202A03D0122B09D1012A0CD00A46B7
:1007E000FFF729FE0022009200F0E2FA43E0042A1B
:1007F0001CBF022A102A04D00A46106820F4806028
:1008000003E00A46106840F4806008602FE0608DC5
:10081000022818D1042A1CBF022A102A0AD00B462B
:10082000186820F4806008602068036843F400635F
:10083000036004E00F46386840F480600860206878
:1008400041680B0507E00B46186840F480600860BB
:100850002068436819050AD5B24218BF012A04D09E
:10086000082A1CBF102A202A01D1FFF7DBFE002036
:100870000090FFF7D7FD00226A6145E200F0BBFA65
:1008800042E252070EF004005FD5D1F804805FEA1F
:100890000852F5D45FEA0E622CD55A052AD50028F5
:1008A00028D16A78AB78E76A208D002808BF212A12
:1008B00013D1082F1CBF202FB74204D000F02CFA10
:1008C0000022AA702DE000F086FA30D10021A97034
:1008D0002046BDE8F64100F0D3BE212A03D0402BCC
:1008E00008BF222ACCD1608D00284CD0A87840289F
:1008F00027D0D6E10028C3D09805C1D5212F1DD11E
:10090000E26A687821283BD1608D08B100F0C9B94E
:10091000082A1CBF202AB24206D000F0FDF90020B0
:10092000A8702021697004E000F055FACED00021B3
:10093000A9702046BDE8F64100F0F2BEBCF1400FC0
:100940001ED12046BDE8F641F2E24A68160517D4EA
:100950005FEA4E627AD55E0578D5002876D1687850
:1009600022280DD1E66A608D04280AD300F0EBF945
:10097000608D032804D12068416821F480614160C2
:10098000C2E1E26A022A5CD0012818BF002858D1CF
:100990000020DFF86838009019201968B1FBF0F0EA
:1009A0004FF47A72B0FBF2F202EB8202009221461F
:1009B000FFF71EFE20B10A6810688305F8D41DE019
:1009C00001F13C02506840F0200050600868436824
:1009D00023F4E06343600C6820694B6A1870486A2E
:1009E000441C4C622024488D431E4B8554700020CB
:1009F00090700846BDE8F64100F0A6BE10681146AA
:100A000020F4806008602068426822F4E06242605E
:100A1000216800F098F920206870A978402908D151
:100A20000020A870002121632046BDE8F64100F0B7
:100A30009FBE0020A870082E18BF202E53D0122071
:100A400052E0486820F4806048605DE10028FCD0F6
:100A50009805FAD5E06A628D042A05D1486820F429
:100A600080604860216847E1628D032A0CD14A68A2
:100A700022F480624A60042818BF022801D000F0E6
:100A800091F92268106938E1628D022AEBD10128C0
:100A900018BF10280DD0042818BF022804D00B4618
:100AA000196841F4007108E00B46196841F480614F
:100AB00003E00B46196821F480611A46116000F0CA
:100AC00052F900F050F921684A6822F440724A60F5
:100AD00020216970AA78402AA2D00021A970082894
:100AE00018BF2028ABD1002020632046BDE8F64186
:100AF00000F020BE686800B98A69D1F814C05FEAC6
:100B00008C7025D5980523D5686800B18A696B7803
:100B1000002003F02803282B14D14B6823F48063B2
:100B20004B60510758BF0120110654BFE268A2690B
:100B30000021297002B001462046BDE8F04192B282
:100B400000F017BE00F0EFF8002100982970DBE0FC
:100B50005FEACC6078D59A0576D56F78486820F43E
:100B6000E06048600021009122685069009022688E
:100B70001168104641F001010160009A00F012F97D
:100B800021684868020528D50FF2A158222F18BF06
:100B90002A2F10D0606B00F0F1F8606B00F0FCFDC4
:100BA00001281AD0606BC0F85080606B00F0E2FD45
:100BB00098B1606B0FE0A06B00F0E0F8A06B00F064
:100BC000EBFD012809D0A06BC0F85080A06B00F0AD
:100BD000D1FD10B1A06B016D8847608D98B1206880
:100BE00041694A0702D5006900F0AEF82068416902
:100BF0004A0602D5006900F0A7F8608D18B1686850
:100C000040F004006860686818B12046BDE8F6410D
:100C1000ECE12A2F05D1206328216970204600F0DD
:100C2000BEFD6878282807D1E66200F0CEF820469D
:100C3000BDE8F64100F0B4BD206B222818BF222F7A
:100C400062D100F0C2F84DE00CF00400212F18BF73
:100C5000292F2DD15FEA0C621CD55E051AD5C8B9C3
:100C60006A78608D00284FD0606A03780B61606AF3
:100C7000411C616200F071F808BF292A44D100F0DC
:100C80008BF821202063282169702046BDE8F641B9
:100C900000F087BD002837D09A0535D5608D002833
:100CA00032D0606A02780A61606A411C616229E0A0
:100CB0005FEA4C621BD55E0519D5C0B96A78608DB4
:100CC00010B30869616A0870606A431C636200F0CF
:100CD00044F808BF2A2A17D100F05EF822202063CA
:100CE000282169702046BDE8F64100F058BD58B192
:100CF0009A0509D5608D38B10869616A0870606A23
:100D0000421C626200F025F8BDE8F381A868000487
:100D1000C00D00F006007047486820F4E0604860AD
:100D200011212163704700904A69009289690091FE
:100D30007047002200924B690093896900910098E6
:100D400021680A6870470869616A0870606A421C15
:100D50006262608D411E61857047608D411E6185B4
:100D6000608D0028704723681969626A1170616A92
:100D70004B1C6362618D4A1E62857047026853682E
:100D80006385608D18B1686840F004006860486849
:100D900020F40060486070472068416821F4806159
:100DA000416070472068016821F4806101607047EC
:100DB0002068416900918269009200992268106858
:100DC000114640F400700860704700202063202125
:100DD0006970A8707047486820F4E0604860206837
:100DE000016841F4007101600020206320216970D6
:100DF000A87840287047002000904A6900928969CD
:100E0000009100987047F8B5054605F13D002A6845
:100E10005669576841780024F30505D5FB0503D5CD
:100E20006FF4807301245361B20507D5FB0505D526
:100E30002B686FF4007244F002045A6172055ED5AB
:100E4000FB055CD56A8D0378D5F830C06FF4806EF1
:100E5000202908BF002A47D1212B18BF292B04D0F5
:100E6000282B08BFBCF1210F3ED10178EA6ADFF8D8
:100E7000B832082A14BF202A282917D1EB62002390
:100E800029684A6822F4E0624A602968C1F814E0DF
:100E900029680A6822F480620A60002129632022FE
:100EA00002704370284600F07BFC28E0212917D10E
:100EB000EB62296320220270002343702868416896
:100EC00021F4E06141602868C0F814E0286800F06F
:100ED0002AF82846FFF7FBF9284600F062FC0EE0EE
:100EE0002968C1F814E00AE0286844F00404C0F856
:100EF00014E0102918BF402901D1FFF7A1FA3005ED
:100F000007D5F90505D529686FF4006044F0080499
:100F1000486134B1286C04432C642846BDE8F24093
:100F200064E0F1BD3068016821F4806101607047C0
:100F300010B500F13D0200F148041378A16889B9A9
:100F400000686168012905D12268D2B20261A068F7
:100F5000801C05E021680904090E0161A068401C9D
:100F6000A06010BDA168012904D122680068D2B236
:100F700002610AE0A168022933D1222B09D101685C
:100F80000A68084642F480720260A168491CA160A8
:100F900010BD418D61B1212B0AD1436A02681978D5
:100FA0001161416A4A1C4262418D4A1E428510BD50
:100FB000418D002908BF212B17D101684B6823F40C
:100FC000E0634B60002401680B6843F400730B601E
:100FD00000210163202313705470BDE8104000F01D
:100FE0004FBBBDE81040FFF772B910BD38B50446DD
:100FF00004F13D0528786978102914BF402922287A
:1010000004D121680A6822F400620A6000F0280115
:10101000282904D10020206328222A700BE02168AF
:101020004A68110505D4602803D0202028700021CB
:10103000697000202063206841680A0523D5416853
:1010400021F400614160606B0FF2E10190F83520FE
:10105000012A09D00165606B00F08CFB002825D0C7
:1010600000F053F8606B0BE0A06B0165A06B00F023
:1010700081FBD8B1206800F037F800F046F8A06B8B
:10108000016D884712E02A78602A0AD12021297050
:101090000022226400F028F800F030F800F082FB13
:1010A00004E000F021F8204600F04EFB206C10F028
:1010B0000F0F04D02068416821F4E0614160287876
:1010C000216C4A070ED528280CD11748E062002170
:1010D00021632020287000226A702046BDE832403B
:1010E00000F05EBB31BD000041694A0605D50069CC
:1010F000616A0870606A421C626270472068016819
:101100004908490001602046704720680168490885
:10111000490001602020287070472068016841F470
:1011200000710160704700000000FFFF7CB50021E6
:1011300000911926816B314801F13D024FF47A7418
:1011400013780568B5FBF6F6B6FBF4F423204443A8
:101150000094009838B10098401E00900C682068F8
:101160008505F6D403E0086C40F020000864486B65
:1011700008B10024C463886B08B10024C463086804
:10118000046824F48064046000204885486B08B13A
:1011900000240465886B08B10024046508680468AD
:1011A000640864000460107860280AD1202313705A
:1011B0000024547000220A640846BDE8764000F01E
:1011C000F1BA03F02803282B0ED10868036843F016
:1011D0000103036028230868046844F48064046001
:1011E00000200863137003E0202010700024547066
:1011F0000846BDE8764000F0A7BA0000C000002015
:101200002DE9F8430E46089C054691469846370C52
:101210002868F9B201290CBF4069806900F06EF8B6
:101220000CBF0120002048451ED118F1010FEFD05E
:1012300000F020FA001B804502D3B8F1000FE7D17F
:101240002868F9B201290CBF4069806900F056F89E
:101250000CBF012000204845DAD100F054F841606D
:1012600002700120BDE8F2830020FBE72DE9F04188
:101270000E46054614469846370CF8B2012817D199
:101280002968486900F03AF817D02868416948058C
:1012900015D52A681168104641F4007101606FF499
:1012A000806229684A6100F08BF841F004011BE07C
:1012B0002968886900F022F8E7D1002017E014F1CE
:1012C000010FDAD000F0D6F9A0EB0800844201D378
:1012D000002CD2D1F9B2286801290AD1406900F066
:1012E0000DF8CDD000F00FF8416002700120BDE88C
:1012F000F081806900F002F8DAD0F3E7304080B284
:10130000B1B28842704700202863202105F13C00DB
:10131000002241708270416841F02001704770B531
:1013200005460C46164628684169080617D4284623
:1013300000F050F818B914F1010FF4D001E00120C9
:1013400070BD00F097F9801B844201D3002CEAD1D4
:10135000286841690806E6D400F025F8EFE7002088
:1013600070BD70B505460C461646286841694807A9
:1013700017D4284600F02EF818B914F1010FF4D054
:1013800001E0012070BD00F075F9801B844201D39B
:10139000002CEAD1286841694807E6D400F003F838
:1013A000EFE7002070BD002105F13C0029632022F9
:1013B00042708170426842F02002426001707047C2
:1013C00000202863202105F13C000022417082703A
:1013D0004168704710B501684A6953050DD56FF42F
:1013E00080644C61002101633C3020234370817094
:1013F000436843F004034360017012F4806018BF37
:101400000120C0B210BDF0B40246106895681318F0
:10141000506803EB5004C00748BF4D44A3422DD091
:1014200013F8016B16F0030004BF13F8010BC01C86
:1014300031090F2907D113F8011B0F3103E013F80D
:10144000017B05F8017B401EF9D10029E6D013F895
:10145000010BC6F38106032E08BF13F8016B00EBE6
:101460000620404228440026B71E8F421EBF10F8B7
:10147000017B05F8017B761CF6D1CFE7F0BC02F1C9
:101480000C00704781B0002000902548416841F46D
:1014900080414160416801F4804100910021009A3F
:1014A0000091036843F080530360006800F08050AF
:1014B0000090009801B0704710B586B00446142122
:1014C000002201A800F07CF92168164A914224D13B
:1014D0000020154C0090216841F00201216012218A
:1014E000206800F002000090C020009A02910022C3
:1014F00003920321019004910422059201A90B4853
:1015000000F068F900200090216941F40011216188
:10151000206900F400100090009806B010BD000093
:10152000403802400054004030380240000402407D
:101530002DE9F04104000E4654D0474F386800F0C2
:101540000700B04202D200F073F84BD12068434D3F
:10155000810712D5400703D5A96841F4E051A9607D
:101560002078010703D5A86840F46040A860A96806
:10157000A06821F0F0010143A9602178C80729D5AE
:101580006068012802D129688A0305E0022818BF93
:10159000032803D129688A0103D423E029688A0734
:1015A00020D5A968890840EA8100A86000F062F8A7
:1015B0008046A868616800F00C00B0EB810F09D08C
:1015C00000F058F8A0EB080041F289318842F0D3CE
:1015D00003202BE0386800F00700864204D200F0B8
:1015E00027F801D0012021E02078420705D5A9681D
:1015F000E06821F4E0510143A9602178080706D58D
:10160000A968206921F4604141EAC001A96000F0A5
:10161000C3F9AA681249134BC2F30312895CC8408C
:1016200018601148006800F0E7F90020BDE8F0817B
:101630003E70396801F00701B142704709480068FF
:1016400070470848094A006813680949C3F38222B1
:10165000FFE7895CC8407047003C02400038024008
:10166000A8860008C00000209C0000200838024026
:101670001887000801484068704700BF94000020A8
:10168000704703681AB95A1E0260084670471978F5
:1016900011B94FF0FF307047591C0160187870473E
:1016A00080B5002200211F2000F0DDF91F2000F08E
:1016B000F7F901220021202000F0D5F9BDE8024011
:1016C000202000F0EDB980B5002918BF002A04D011
:1016D00000F005F8FEF702FE00B1032002BD009302
:1016E00093B20A4641002048704780B5002918BFD0
:1016F000002A04D0FFF7F4FFFEF7DCFE00B1032060
:1017000002BD80B5002918BF002A04D0FFF7E8FF0A
:10171000FEF7EFFE00B1032002BD144908607047D8
:101720001149884205D11148016800291CBF0120D8
:10173000084770470C49884205D10C4801680029C8
:101740001CBF0220084770470749884205D1074857
:10175000016800291CBF0320084770470248FEF7B4
:1017600066BF0148FFF74FBB28230020B4230020A9
:101770007047704790F83510022903D080224265E7
:1017800001207047052180F8351000680268520872
:10179000520002600020704790F835007047704793
:1017A0007047704770478268521C8260426832B14D
:1017B0000268531C036011704168491E4160704704
:1017C0004018491C1CBFB1F1010100F8012DF9D1ED
:1017D00070472E002DE9F84F0022674CDFF89C81FE
:1017E0004FF00F0901230F6893401F409F4240F0C4
:1017F000B8804FEA420C032505FA0CF56FEA050E96
:101800004D6805F00306012E1CBF05F00305022DEF
:1018100010D18568CE680EEA050506FA0CF6354348
:101820008560456825EA03034D68C5F300159540BA
:101830002B43436093000D7905F00305032D1ED063
:10184000C5688E680EEA050506FA0CF63543C560D4
:101850000D7905F00305022D11D1D50800EB8505A2
:1018600003F01C06D5F820B009FA06FA2BEA0A0B99
:10187000D1F810A00AFA06F646EA0B062E620568B1
:101880000EEA05060D7905F0030505FA0CF545EAA3
:10189000060CC0F800C04D6815F4403F61D04FF011
:1018A000000ECDF800E04FEA920CD8F8005045F455
:1018B0008045C8F8005003F00C03D8F800E0304D24
:1018C0000EF4804ECDF800E0DDF800E055F82C6015
:1018D00009FA03F5AE432B4DA84208BF4FF0000EA6
:1018E00018D0294DA84208BF4FF0010E12D0274D45
:1018F000A84208BF4FF0020E0CD0254DA84208BFE9
:101900004FF0030E06D0234DA8420CBF4FF0040E3B
:101910004FF0070E0EFA03F3DFF864E033434EF89E
:101920002C30FE43A3684D683340ED0248BF3B4373
:10193000A360E3684D683340AD0248BF3B43E360BA
:1019400063684D683340AD0348BF3B436360236821
:1019500006EA030C4B68DB0348BF47EA0C0CC4F8EB
:1019600000C0521C0F2A7FF63DAFBDE8F18F02B9CF
:101970000904816170470000003C01404438024086
:101980000838014000000240000402400008024004
:10199000000C02400010024030B5144C606800F0AA
:1019A0000C00042802D0082802D01DE0104830BDE9
:1019B000226820680023410202F03F0204D5256816
:1019C0000B49C5F3881003E020680A49C0F388106A
:1019D000A1FB000100F08CF82168C1F30141491C12
:1019E0004900B0FBF1F030BD024830BD0438024080
:1019F00040787D010024F40038B50D4D0D4B2A7858
:101A000004464FF47A711868B1FBF2F2B0FBF2F0C1
:101A100000F051F850B9102C08D2002221464FF0A6
:101A2000FF3000F020F8AC60002032BD012032BD54
:101A300094000020C00000200901020002D42648C2
:101A400081547047254B02F00F021A4402F8041C1F
:101A5000704723490A6860F30A2240F2FA5060F3A3
:101A60001F420A60704770B51D4B1C68C4F3022307
:101A70000124C3F10705052D2EBF0F2504FA05F536
:101A80006D1E1E1D072E34BF0023DB1E294099400A
:101A900004FA03F3BDE870405B1E1A401143CBE724
:101AA000010007D4012200F01F010E4B8A404009BB
:101AB00043F820207047401EB0F1807F01D3012001
:101AC00070470949094A48600023F02010708B6074
:101AD000072008600020704700E400E018ED00E0F7
:101AE0000CED00E000E100E010E000E023ED00E09C
:101AF000D3BBD9B1B2F5803F5BD2022A1ED98C4646
:101B0000B1FBF2F102FB11C31B0443EA1043B3FB28
:101B1000F2FC02FB1C3380B240EA0343B3FBF2F059
:101B200002FB103240EA0C4000237047022A05D91C
:101B30008446B0FBF2F002FB10C270474AB105D1F7
:101B400000F0010249085FEA3000704700220023DC
:101B5000704700F051B80B000200002100207047D0
:101B6000F7D3002200237047904271EB030CF2D3AD
:101B700070B5B1FA81F4B3FA83F52C1BA340C4F11C
:101B8000200532FA05F63343A2405FF00046E640F6
:101B900002E05B085FEA3202841A71EB030524BF9E
:101BA000204629467641F4D302000B003000002184
:101BB00070BD70B5B1FA81F4B2FA82F5C4F12004B7
:101BC0006419B4F12006DAD3B2405FF00044F44067
:101BD000002502E052085FEA3303C61A71EB020ED9
:101BE00024BF3046714664416D41F3D302000B00BF
:101BF0002000290070BD43007047000040F0200025
:101C000070472DE9F14FB0B0924604910DF14201B9
:101C10003A9A2B9199464A7000200AE01AF8011B63
:101C20000498309A90470028049000F044860D985C
:101C3000401C0D909AF8000058B12528EED10020E4
:101C4000002100220790089109920A910B920C91B1
:101C500004E00D9800F031BE41F001011AF8010FC7
:101C60002028F9D023280CD02B2804D02D2805D0EB
:101C7000302809D00BE041F00201EFE741F0040108
:101C8000ECE741F00801E9E741F01001E6E72A2816
:101C90000FD1D9F8002052F8040BC9F80020002811
:101CA0000F9003D540420F9041F004010AF1010A60
:101CB00014E00F92DFF8082C0AE00F9B934205DA3C
:101CC00003EB830400EB440030380F900AF1010A63
:101CD0009AF80000A0F130030A2BEED39AF8002006
:101CE0002E2A03D04FF0FF300E9029E01AF8010F92
:101CF0002A2809D1D9F8002052F8040BC9F800208D
:101D00000E900AF1010A1BE02D280CBF0AF1010A0E
:101D1000002000220E92DFF8A84B0BE040B90E9B8A
:101D2000A34205DA03EB830502EB4502303A0E923B
:101D30000AF1010A9AF80020A2F130030A2BEDD330
:101D4000ADF840100FF67C309AF8001000F0BEFE9F
:101D500008B11AF8010B8DF842009DF8420068287E
:101D600005D19AF8001068290CD1622006E06C2891
:101D700004BF9AF800106C2904D171208DF842003C
:101D80000AF1010A12AA06921AF801BBBBF125005A
:101D90002CD01C3800F09781001F022840F293815C
:101DA000133800F0BA84093800F08D81801E00F0ED
:101DB0004F85401E00F0FC84401E022840F28381C3
:101DC000001F00F0F584401F00F0F280401E00F07C
:101DD000A484401E00F0DA80C01E0ED0801E00F0E9
:101DE0009C84C01E00F0998400F03DBD0122252195
:101DF00007928DF8481000F042BDD9F8000050F865
:101E0000044BC9F80000002C059440F0AB802B99DE
:101E10004878002800F0A1804FF0FF340FF6AC2086
:101E200000F060FE241A40F0468500F028BD012332
:101E30006A4602A9304600F00DFE002840F03B85BE
:101E4000641EF4D13096079C12AF74B1309E17F81F
:101E5000011B0498B0470028049000F02C850D98D1
:101E6000401C641E0D90F2D130960A9C3021002C4B
:101E70008DF800100CDD309E01236A4602A9304621
:101E800000F0E8FD002840F01685641EF4D130967D
:101E9000059F089C74B1309E17F8011B0498B04749
:101EA0000028049000F007850D98401C641E0D90DA
:101EB000F2D130960B9C3021002C8DF800100CDDF7
:101EC000309E01236A4602A9304600F0C3FD002877
:101ED00040F0F184641EF4D1309605980899099C6D
:101EE000471874B1309E17F8011B0498B0470028BA
:101EF000049000F0E0840D98401C641E0D90F2D117
:101F000030960C9C3021002C8DF800100CDD309E9A
:101F100001236A4602A9304600F09CFD002840F0EB
:101F2000CA84641EF4D130969DF8400041077FF5C5
:101F300081AE2020002D8DF800007FF77BAE309C15
:101F400001236A4602A9204600F084FD002840F0E3
:101F5000B2846D1EF4D130946CE60FF658300590C3
:101F600000F08DBC0E9D002D04D5204600F0DAFD5A
:101F7000044608E02A460021204600F0DDFD002846
:101F800014BF041B2C46089400F079BCD9F800104B
:101F900051F8040BC9F8001020F00002002121F0D4
:101FA000FF33CDE9022312AC0594782100F04CBC3C
:101FB0002B99487820B14FF0FF340FF6C8202FE757
:101FC0009DF84200622860D0682817D06A283FD068
:101FD0006C2806D0712847D074282CD07A281DD0C0
:101FE00062E0D9F8001051F8040BC9F8001000287D
:101FF00066D14FF0FF340FF6A42011E7D9F8001096
:1020000051F8040BC9F8001020B94FF0FF340FF657
:102010008C2005E70D99018000F031BCD9F8001043
:1020200051F8040BC9F80010002849D14FF0FF34D3
:102030000FF66820F4E6D9F8001051F8040BC9F83F
:10204000001000283CD14FF0FF340FF65020E7E697
:10205000D9F8001051F8040BC9F8001080B94FF0FE
:10206000FF340FF63820DBE6D9F8001051F8040BE6
:10207000C9F8001020B94FF0FF340FF62020CFE64A
:102080000D9AD317C0E90023F9E3D9F8001051F8ED
:10209000040BC9F8001020B94FF0FF340FF6FC1004
:1020A000BEE60D990170EAE3D9F8001051F8040B6F
:1020B000C9F8001020B94FF0FF340FF6E010AFE67A
:1020C0000D990160DBE39DF842004C2807BFD9F869
:1020D0000010CA1DD9F80000C21D22F00702C9F87D
:1020E0000020D2E900010832C9F80020CDE9020140
:1020F000C80F02D007982D210AE0BDF840008107E3
:1021000002D507982B2103E0C00705D507982021A9
:1021100012AA1154401C079012A807994BF02003F3
:1021200000EB010CDDE90201CDE92C01612BCDF8BA
:1021300014C021AC0BD00E98002848BF062105D44E
:1021400004BF4BF02000672801D101210E91DDE989
:1021500002014F0047EAD0777E15FF174FF0FF329C
:10216000974208BF964210D1090341EA105100037B
:10217000002908BF002808D0ABF1610503211A2D02
:10218000089118D30FF6341110E0DDE902014A007E
:10219000521512F1010F11D108030FD1ABF16105F6
:1021A00003211A2D08911FD30FF618110322604640
:1021B00000F0EEFC63E30FF60011F7E7DDE9020142
:1021C0006A4600F0F1FCCDE902014BF020006128E5
:1021D00011D1059830220270811C0591BBF1610F6D
:1021E0000CBF7821582102E00FF6D401DEE74170E0
:1021F0000798801C0790DDE9020120F0000231F011
:10220000004308BF002A02D10026002542E14BF01E
:102210002008B8F1610F40F092800E99002947BF65
:1022200021200190491C0191019FDDE92C017F1CB7
:1022300000220023DDE9024500F0EEFC38BF85F006
:10224000004500988DF88420001F002F00900DF1AC
:10225000850632DD204629460022002300F0F6FCE8
:102260002BD21C2200F00CFD04460D4600F0A6FD0A
:10227000FF1F002F804609DD00F0BCFD02460B4623
:102280002046294600F086FE04460D46F01D072133
:10229000B8F1000F0CDD491E5EBF08F00F0200F818
:1022A000012D4FEA2818F3D502E0002200F8012D95
:1022B000491EFAD5C61D002FCCDC0DF18500361A5B
:1022C00001980DF185048642D8BF304600282FD4EE
:1022D000B04206DA0DF185010A5C082AA8BF0F2179
:1022E00000DA0021024621AB134400E0401E13F83F
:1022F0000159521E8D42F9D00F2904D10DF18501EB
:102300008B5C5B1C8B54002A04D50099091D21AC01
:10231000401C0091411E0BD4621813783033DDB29B
:102320003A2DA4BF5B443A3B491E02F80139F4D56B
:102330000E9A002A40F1AC80411E0E91A8E000994F
:10234000DFF8002747F29750414391FBF2F20092E9
:10235000DDE92C45C2F10702002A25F0004504DD25
:102360002046294600F04AFB0BE052420020DFF8ED
:10237000D81600F043FB02460B462046294600F0E3
:102380007BFE04460D46B8F1660F06BF009F0A3774
:1023900006270E983F18142FC8BF142730208DF839
:1023A00084000DF18506002F34DD2046294600F01B
:1023B00087FF01460A4606F1080304200A26B2FBFD
:1023C000F6F606EB860EA2EB4E02303203F8012C35
:1023D0000A22B6FBF2F202EB820EA6EB4E06303674
:1023E000401E03F8026DE9D1083F002F03F10806F3
:1023F000D9DD084600F076FF02460B462046294606
:1024000000F0C8FD0022DFF8443600F079FF0446F2
:102410000D46CAE70DF18500361A0DF1850404E07A
:102420000098401E761E0090641C20783028F7D05B
:10243000B8F1660F02D10098401C04E0B8F1650FB6
:102440000CBF012000200E9940188642B8BF701EB4
:1024500000281DD4B04204DA215C3429C8BF3921D8
:1024600000DC30210246631E9D1800E0401E15F876
:102470000169521E8E42F9D0392902D1A15C491C52
:10248000A154002A04D50099491C1C46401C009107
:102490000646009D01F02AF8406A0778DDF838808A
:1024A00030B2002802DC01260FF21C644BF0200041
:1024B000662808BF6D1C16D0672845D128B210F1D8
:1024C000040F47DB404545DA9DF840006D1C0107CD
:1024D00003D430B24045D8BF804628B2B8EB0008DC
:1024E00048BF4FF000080FFA85FBBBF1000F00F367
:1024F000B3800898411C0891302205990A54B8F11C
:10250000000F03DC9DF84000010704D50898411C2A
:10251000089105990F5418EB0B0FB8BFC8F10005CF
:102520002DB26842454432B20B909542B8BF2E4658
:10253000059B089836B2099632462146184400F0A9
:1025400027FBAD1B0C95D1E0BBF1610F17D14FF00C
:10255000700B19E030B2404504DA9DF840100A07CC
:1025600058BF8046B8F1010848BF4FF00008BBF1E2
:10257000670F14BF4FF0450B4FF0650B04E0BBF144
:10258000410F08BF4FF0500B0898411C0891B8F15B
:10259000000F059914F8012B0A5403DC9DF8400044
:1025A00001071AD50898411C0891B8F1000F059948
:1025B0000F5412DD761E30B28045B8BF46460598EE
:1025C000089B32B22146184400F0E2FA089836B26D
:1025D00030180890A8EB06000B9005980899014464
:1025E00028B2002881F800B003D42B204870891C41
:1025F00004E02D224A700546891C6D4200202CAA59
:102600000AE02B460A2593FBF5F505EB8504A3EBC1
:10261000440302F8013B401C2DB2002DF1DC0128DF
:1026200006DC4BF02002652A04BF302201F8012BA2
:1026300000282CAA08D1302001F8010B06E0401E2A
:10264000135C303301F8013B0028F8DC059A089848
:102650001044091A099149E030B229B288421CDAC3
:102660000598089B32B22146184400F091FA089967
:1026700036B271180891ABEB0600B8F1000F0B9061
:1026800003DC9DF84000020704D5059847540999DA
:10269000491C0991CDF8308028E00598089B2AB2A2
:1026A0002146184400F074FA0898761B5844B8F193
:1026B000000F089003DC9DF840100A0703D5411C69
:1026C000089105990F5430B28045B8BF4646059829
:1026D000089B32B204EB0B01184400F059FA089839
:1026E00036B230180890A8EB06000B909DF8400019
:1026F00000F01400102840F0C280079A08980B9947
:10270000821809988A1882180C980F9980188842A4
:1027100080F2B580081A0A90B1E09DF84200622864
:1027200008D068280ED06A2814D06C281FD07128D1
:1027300010D01CE0D9F8001051F8040BC9F80010B3
:10274000C0B21AE0D9F8001051F8040BC9F8001013
:1027500080B212E0D9F80000C21D22F00702C9F8C9
:102760000020D2E900010832C9F8002006E0D9F8BB
:10277000001051F8040BC9F800100021CDE9020146
:102780009DF8400002075AD5DDE90201002908BF83
:10279000002854D04BF02002782A50D1079812A973
:1027A00030230B54401C421C079201F800B046E055
:1027B0009DF84200622808D068280ED06A2814D0FC
:1027C0006C281FD0712810D01CE0D9F8001051F8E7
:1027D000040BC9F8001040B21AE0D9F8001051F803
:1027E000040BC9F8001000B212E0D9F80000C21DB5
:1027F00022F00702C9F80020D2E900010832C9F826
:10280000002006E0D9F8001051F8040BC9F80010B8
:10281000C117CDE90201002902D507982D210AE050
:10282000BDF84000810702D507982B2103E0C007BF
:1028300005D50798202112AA1154401C079012A810
:10284000079901440591594602A800F04DF816E099
:1028500001200790D9F8001051F8040BC9F80010B6
:102860008DF848000BE001202521BBF1000F0790F7
:102870008DF8481003D0022107918DF849B00F9DC3
:1028800007980A992D1A08986D1A0B992D1A09980C
:102890006D1A0C992D1A9DF840006D1A41073FF5ED
:1028A000D2AA2020002D8DF800007FF7CCAA309E00
:1028B0002C46FFF7BCBA4FF0FF3031B0BDE8F08FC7
:1028C000CBCCCC0C686A6C747A4C00007072696E68
:1028D00074665F733A2062616420257320617267B9
:1028E000756D656E740000002DE9FC4D0646884646
:1028F000376940466F2808BF082405D0FFF77EF9E6
:10290000782814BF0A241024D6E900013C25824609
:102910008B46B8F1640F18BFB8F1690F05D10029D3
:1029200003D5DAF1000A6BEB4B0BBBF1000F08BFCC
:10293000BAF1000F0CD1306B50B9082C3AD196F88F
:102940003800010736D530223B2587F83B2031E09F
:102950008DF800805046594622460023FFF7C8F8FC
:102960003032D0B26D1E3A2801950EDA7A555046B3
:10297000594622460023FFF7BBF882465FEA010B67
:1029800008BFBAF1000F05D108E09DF80000121849
:10299000513AEBE7F06879198842DBD3082C09D16A
:1029A00096F83800010705D5785D302802D06D1EF5
:1029B00030207855C5F13C02306BB2617919824202
:1029C000F16008DA318F821A4FF6EF7001403187DB
:1029D0003262BDE8F38D00280ED596F8380000F07D
:1029E0001400102808D1736B7069316A1B1A5B1AC6
:1029F0009B1A002BC8BF3362BDE8F38D2DE9D0438D
:102A000006460F4614464FF00008DFF8449012E0E7
:102A1000E00707D542464B463046394600F070FC89
:102A200006460F464046494642464B4600F068FC83
:102A3000641080468946002CEAD130463946BDE80C
:102A4000D0830000A08601000000F03F84D79741AA
:102A500000002440F8B505460E4617461C460020E7
:102A60005CB117F8011BB068A847B06030B1F06ADC
:102A7000401CF0620020641EF3D1F2BD4FF0FF3025
:102A8000F2BD00007072696E74665F733A20256E45
:102A900020646973616C6C6F776564007072696E35
:102AA00074663A2062616420256E20617267756DDC
:102AB000656E7400000000006E616E004E414E00B5
:102AC000696E6600494E460030000000C9B20278C7
:102AD0008A421AB11CBF10F8012FF9E718BF002075
:102AE0007047000080B500B906A005490B681BB10E
:102AF00022220021984701E000F0FEFC222002BDC6
:102B0000B8230020636F6E73747261696E742068FD
:102B1000616E646C65723A20626164206D657373E6
:102B20006167650000F1010310F8011B11B110F895
:102B3000011BFBE7C01A7047C9B2830706D0521EBB
:102B400022D310F8013B9942F7D11FE0083A13D382
:102B500002F1040241EA012141EA014150F8043B3B
:102B6000121F21BF4B40A3F1013C2CEA030C1CF0C7
:102B7000803FF3D0C9B2001F0832521E24BF10F8A4
:102B8000013B91EA030FF8D818BF0120401E70479F
:102B90004AB1000011F8013B521E00F8013B1CBF76
:102BA00011F8013BF8E7704710B5144600F002F841
:102BB000226010BDC1F30A5343B14A0012F5001F51
:102BC00028D2A3F2FE32A1EB0251704750EA410C29
:102BD00020D001F0004C31EA0C01B1FA81F204BFBF
:102BE000B0FA80F3D2180B3AB2F120032CBF00FAEE
:102BF00003F1914041EA0C013EBFC2F1200C20FAE2
:102C00000CF319439040524240F2FD33D21A01EBCB
:102C1000035170470022704741EA030C50EA4C0C04
:102C200052EA0C0C4FF4001C09D307D01CEB410FE7
:102C30009CBF1CEB430F8B4208BF824270471CEBCA
:102C4000430FFBD8994208BF9042704741EA030CFA
:102C500050EA4C0C52EA0C0C4FF4001C09D307D07C
:102C60001CEB410F9CBF1CEB430F994208BF9042E5
:102C700070471CEB410FFBD88B4208BF8242704764
:102C8000124254D440F2FF7C1CEA11530FD063452A
:102C900031D09B1863453CBF01EB0251704701F0F6
:102CA000004141EA0C510020AFF30080704750EA28
:102CB000410320D001F0004C91EA0C011CD0B1FA84
:102CC00081F30B3B9A420DD9D21A994051EA0C017B
:102CD000C3F1200C20FA0CFC61449840531C40F2D4
:102CE000FF7CD7E7914041EA0C01C2F1200C20FAA9
:102CF0000CF3194390407047B0FA80F31533202B42
:102D0000E0D3202AEED3203A203B9A4209D9D21AA6
:102D100000FA03F141EA0C010020531C40F2FF7C51
:102D2000B8E700FA02F141EA0C0100207047524274
:102D300040F2FF7C1CEA11530DD06345DBD0B2EBAF
:102D4000030C3CBFA1EB025170470CF1010221EAD8
:102D5000035141F4801150EA410CCCD001F0004CF9
:102D6000352A27DC30B481EA0C01B2F1200309DAFC
:102D7000C2F12003044601FA03F5D0402843D140B4
:102D80009C400CE0C3F12002450020FA03F418BF78
:102D900044F0010421FA03F091400C43002174F146
:102DA000004550F1000051EB0C01244230BC7FF48F
:102DB0007BAF70476146002076E70000C1F30A53FD
:102DC00040F21E42D31A0CDDCA0283F3070342EA23
:102DD000505242F00042DA4002EBE17282EAE170C6
:102DE00070476FEAE17203F2E13008B182F000400F
:102DF0007047000010F0004160B148BF4042B0FA97
:102E000080F29040D21CC2F5846241EA025202EB89
:102E1000D02140057047000070B491EA030F4FF0D5
:102E2000004540F1BF806B40841A71EB030604D269
:102E30006E40001BB141121973414FF4001C1CEB92
:102E4000410F34BF7CEB430683E00C0DA4EB13561B
:102E5000362E00F37C80012E45EAC32341DC43EA91
:102E6000525312BFD20292025B08240545EAC121E7
:102E700041EA5051D2EBC020994125D407D1B0FA94
:102E800080F610FA06F162D00020203608E0B1FA90
:102E900081F6B140C6F1200220FA02F21143B0409F
:102EA0004FEAF474B4EB465434F001064FEA74046C
:102EB0000AD8D6F50016760D04F00044F04061FA09
:102EC00006F25040F1404840C00A40EA415021F02B
:102ED000004128BF5FEA500550F1000044EBD121CA
:102EE00035E0DB0A45EAC121C90AB6F120050EDD4D
:102EF00042EA0242120CC5F1200603FA06F6EB4044
:102F000042EA06056D42984161F100010DE062FA66
:102F100006F5F240554063FA06FC82EA0C02F340E3
:102F20005A406D42904161EB030111F4801F05D1BD
:102F3000641E620502D06D004041494121F48011B8
:102F4000430875F1004350F1000041EB045170BC9F
:102F500070471CEB410F15D223F0004352EA4306A1
:102F60000BD04FEA4C0CBCEB410F04D80C0D661E85
:102F7000342EB7DDEBE7801A994150EA410608BFCD
:102F80000021E4E708BF1CEB430F28BF6FF00001EE
:102F9000DDE7000070B491EA030F4FF000457FF5C4
:102FA00043AF6B40841A71EB030603D2001BB1419F
:102FB000121973414FF4001C1CEB410F34BF7CEB22
:102FC000430442E00C0DA4EB1356352E4FDC45EACA
:102FD000C323DB0A45EAC121C912B6F120050DDD84
:102FE00063FA05F6EB4086EA0305124218BF45F086
:102FF0000105C01851F100010CD213E062FA06F588
:10300000F2405540F3415A40B340F3405A408018D3
:10301000594107D349085FEA30005FEA350528BF08
:1030200045F0010501F58011420875F1004250F1AB
:10303000000041EB04514E0016F5001F70BC38BF74
:1030400070470020090D090570471CEB410F10D295
:1030500052EA43060BD0BCEB410F05D80C0DAB4335
:10306000661E342EB6DD02E0AB438018594170BCB9
:10307000704770BC70470000F0B540F2FF7581EA00
:10308000030C0CF0004C15EA11541DBF15EA135740
:10309000AC42AF42E5E0BC41C1F31301C3F31303FB
:1030A000801A994143F4801304D2641E00184941E8
:1030B00080185941C90241EA5051B1FBF3F603FBB4
:1030C0001611A2FB0675D7EBC020A94102D2761ECD
:1030D00080185941C90241EA5051B1FBF3FE03FB8C
:1030E0001E11A2FB0E75D7EBC020A94103D2AEF191
:1030F000010E80185941890241EA9051760546EA4D
:103100008E2EB1FBF3F603FB1611A2FB0675D7EB6F
:103110008020A94102D2761E80185941C90241EA95
:1031200050514EEA060EB1FBF3F603FB1611A2FB5B
:103130000675D7EBC020A94102D2761E80185941EE
:10314000C90241EA5051B1FBF3F703FB1711A2FB8F
:103150000735D3EBC020A94167F100070CBF00423F
:1031600047F0010766F3D5274FEA1E31B80814F57A
:10317000806412DDBD0775F1004250EB0E5051EB3B
:10318000045111F5801F5CBF41EA0C01F0BD4CF009
:103190007F6141F0E0410020F0BDBD076D0840EACD
:1031A0000E5041F48011D4F10104B4F120060ADA82
:1031B000C4F120060200E04001FA06F3E1401843A2
:1031C000B24015430EE0342C13DCC6F1200445EA6E
:1031D00040056D0820FA06F2154321FA06F0A140D9
:1031E0000D43002175F1004250F1000051EB0C013C
:1031F000F0BD00205FEA0C01F0BDCFB992185B4131
:10320000B3FA83F704BFB2FA82F6BF190B3FB7F1E6
:1032100020062FBF02FA06F3BB40C7F1200622FAB0
:1032200006F638BF3343BA401CB1E419641E33E7D5
:103230007F4231F00041B1FA81F404BFB0FA80F668
:10324000A4190B3CB4F120062FBF00FA06F1A140EF
:10325000C4F1200620FA06F638BF3143A0403C1BDB
:103260001AE7AC421ABF05EA1357AF4212E050EA20
:1032700041061CBF52EA4306BFE750EA4107304609
:1032800061461CBF41EA0551F0BD52EA430C08BF3C
:10329000C143F0BD00204FF4001616EB410F98BF5C
:1032A00016EB430F08BF16EB410F24BFC14305E0E7
:1032B00016EB430F0CBF61464CEA0551F0BD000010
:1032C000400D40F21E4C40EAC120BCEB115C40F0C6
:1032D000004003D48CF30701C84070476FEAE170E7
:1032E0007047000050B1B0FA80F18840C91CC1F5A8
:1032F0008461090501EBD021400570470146704704
:1033000030B540F2FF7C1CEA11541DBF1CEA135576
:10331000644565453FE0641981EA030C6FF35F5330
:103320000CF0004C43F48013C90241F0004141EA23
:10333000505EC5021100A5FB020200284FF00000FC
:10334000EEFB01204FF00001E3FB052118BF42F026
:103350000102401800214941E3FB0E01A4F58064FD
:103360000D0302D292184041494154F1010470DD2D
:10337000450872F1004250F1000051EB0451A1F5F3
:10338000801102D441EA0C0130BD40F2FF7E4CEACC
:103390000E51002030BD0CEA1355644518BF654539
:1033A00081EA030C0CF0004C41D050EA410E1CBFE6
:1033B00052EA430E02E06146002030BD24422C4414
:1033C0001BD15FEA050EF6D0090302BF01460020BB
:1033D000AEF1140EB1FA81F5AEEB050401FA05FE6B
:1033E0000C35C5F1200100FA05F5C8404EEA000E83
:1033F0006FF35F5343F480139CE733F00043B3FA59
:1034000083F504BFB2FA82FE75440B3D641BB5F12F
:10341000200E2FBF02FA0EF3AB40C5F1200E22FAA8
:103420000EFE38BF43EA0E03AA40641C7CE750EA54
:10343000410E14BF52EA430E6FF000014FF4001525
:1034400015EB430F8EBF194615EB410F9DE7B4D81E
:1034500030BDD4F10104B4F120050FDAC4F1200528
:10346000520828BF42F0010210FA05FE01FA05F5E4
:103470007244E2BFE0402843E1400FE0352C9ADC83
:10348000C5F1200452EA400220FA05F218BF42F0CA
:10349000010231FA05F0A1400A43002172F1004215
:1034A00050F1000051EB0C0130BD0000613807E025
:1034B00005E0A0F161011A2901D2012070474138CD
:1034C0001A288041C00F7047A0F10901052901D3D6
:1034D000202801D10120704700207047A0F1410150
:1034E0001A2938BF2030704701487047014870479B
:1034F000E8010020B0010020012000F001B8000028
:1035000080B5AFF30080024A11001820ABBEFBE784
:1035100026000200034608460122C168491CC1601A
:1035200000210068184703460846C1680269491C23
:10353000521E002A0261C16003D4006801220021EA
:1035400018474FF0FF307047034608461146C268DF
:10355000521E11F1010FC26002D00068002218470C
:10356000704700002DE9F84F9AB0002500914FF008
:10357000FF381B68019302920DF13F02249B8DF8E6
:103580001F3003951992814613E00398401C039065
:10359000012200980021C847054600F079FE002866
:1035A000F3D12A4669464846FFF7CEFF0299481CE8
:1035B00002900298007800F06BFE0028E5D1029D91
:1035C000287820B9404500DA404600F039BD25286A
:1035D00009D1681C029001782A2915D1401C02905B
:1035E000401E007811E00398401C039001220098CF
:1035F0000021C84729788842D8D002466946484603
:10360000FFF7A2FF0020DDE7002000218DF81C005D
:103610000591DFF8203A0AE0059A9A4205DA02EBB2
:10362000820501EB450130390591401C029002985A
:103630000178A1F130020A2AEED34FF0FF37069746
:1036400001780FF6F410FFF741FA20B10298401C00
:103650000290401E00788DF81D009DF81D0068281E
:1036600005D102980278682A0CD1622106E06C2804
:1036700002BF029802786C2A04D17121421C8DF895
:103680001D100292029801780FF6A030FFF71EFA83
:1036900080B90398401C0390012200980021C8477C
:1036A000054600F0F5FD0028F3D12A466946484654
:1036B000FFF74AFF0020029A8DF81E001078253887
:1036C0003AD01C3800F09F80001F022840F29B80F7
:1036D000133800F01583C01E1FD0801F00F09380A8
:1036E000801E00F09284401E00F00A83401E0228D3
:1036F00040F28980001F00F00383401F41D0401E2C
:10370000012840F2FD82001F38D0801E00F0F882B0
:10371000C01E00F0F58200F083BC3A4600F076BC93
:103720002498002800F07D8417F1230F40F079845D
:103730004FF0FF3000F084BC0398401C039001223E
:1037400000980021C8470546252D0CD1B8F1000F7F
:1037500048BF4FF000089DF81E0000283FF426AF38
:1037600008F1010822E72A4669464846FFF7ECFEC1
:1037700015F1010F00F0558400F052BC012200F059
:1037800045BC9DF81C000028E0D19DF81D00622872
:103790002DD0682811D06A281BD06C2801D0712840
:1037A00017D0019951F8040B019118B90FF6842034
:1037B00000F027BC03990160C8E7019951F8040B98
:1037C000019118B90FF66C2000F01BBC0399018021
:1037D000BCE7019951F8040B019118B90FF6542078
:1037E00000F00FBC039AD317C0E90023AEE701999C
:1037F00051F8040B019118B90FF6382000F001BC04
:1038000003990170A2E705980028D8BF6FF0004027
:10381000049069464846FFF786FE00250AAC2B282F
:1038200018BF2D2807D18DF8280069464846FFF7B4
:103830007AFE0DF12904002630284FF00A0A16D12D
:1038400069464846FFF76FFE40F02001C9B278296B
:1038500002D001263146ECE03020207061704846ED
:103860006946FFF760FEA41C4FF0100AF2E740F033
:103870002001CAB26E2A4CD16E2004F8010B6946B1
:103880004846FFF750FE83464BF02000C0B2612847
:10389000AA4640F08981612104F8011B4846694627
:1038A000FFF741FE83464BF02000C0B26E2840F087
:1038B0007B8169464846FFF736FE282806D0024637
:1038C00069464846FFF740FE6E2052E00498401ECD
:1038D000049004D50398401C0390BB4604E069465D
:1038E0004846FFF717FE8346CDF820B0584600F053
:1038F000D9FC0028EAD1ABF130000A28E6D30898B9
:103900005F28E3D08346BBF1290F40F04D816E2044
:103910002FE0C9B2692940F09C80692004F8010BAE
:1039200069464846FFF7FFFD83464BF02000C0B2D2
:103930006E28AA4640F038816E2104F8011B4846E3
:103940006946FFF7F0FD83464BF02000C0B26628C1
:1039500040F02A8169464846FFF7E5FD40F0200126
:10396000C9B2692908D0024669464846FFF7ECFD0E
:10397000662004F8010B1DE103980499401C491EC0
:1039800000290491039005D4009801220021C84722
:10399000834600E0BB464BF02000C0B26E2840F0EA
:1039A000038103980499401C491E00290491039047
:1039B00005D4009801220021C847834600E0BB4699
:1039C0004BF02000C0B2692840F0EE8003980499C3
:1039D000401C491E00290491039005D4009801223F
:1039E0000021C847834600E0BB464BF02000C0B230
:1039F000742840F0D98003980499401C491E00297E
:103A00000491039005D4009801220021C847834601
:103A100000E0BB464BF02000C0B2792840F0C480E3
:103A2000662104F8011BC5E069464846FFF772FDB0
:103A30000121302808D10498401E0490F4D5039841
:103A4000401C03903846F3E70E4611B1302104F8CC
:103A5000011B0146AB46304605E069464846FFF784
:103A600059FD0146012011F1010F24D0CBB2612B89
:103A7000A8BFA1F157020ADA412BA8BFA1F1370272
:103A800005DA303B0A2B34BFA1F13002FF22D2B25B
:103A9000524510D2BBF1240FBABF04F8011B0BF141
:103AA000010B6D1C0498401E0490D6D50398401C51
:103AB00003903946D6E78DF820000E46CDF824B0A5
:103AC000FFF714FD406A01788E4210D104F8016BB3
:103AD00003980499401C491E00290491039005D4C1
:103AE000009801220021C847064600E03E4609989A
:103AF000E0B99DF8201005E069464846FFF70AFD49
:103B000006460121302E09D104986D1E401E0490F6
:103B1000F2D50398401C03903E46F2E7002D8DF845
:103B2000201003D5302104F8011B6D1C30469DF890
:103B30002010099E04E069464846FFF7EBFC01218E
:103B400010F1010F22D0C3B2612BA8BFA0F1570220
:103B50000ADA412BA8BFA0F1370205DA303B0A2B65
:103B600034BFA0F13002FF22D2B252450ED2242E31
:103B700008DB0498401E0490DDD50398401C039098
:103B80003846DCE704F8010B761CF2E70E008346AA
:103B90000AD04BF02000BAF10A0FC0B234D1652828
:103BA00034D001E083460E465A4669464846FFF740
:103BB000CBFC0EB3002121709DF81C0000287FF47F
:103BC000C5ADBAF10A0F0B4674DC2A460AA800F00C
:103BD00063FC01228DF81E209DF81D20019B6C2A9C
:103BE00073D153F8042B0193002A6BD1DFF8400402
:103BF000784400F23C4004E20AA8844208BF1BF16A
:103C0000010F40F00D820CE27028CDD104F801BB09
:103C10000498401E049010D40398401C0390012285
:103C200000980021C8472B2818BF2D2811D104F86F
:103C3000010B0498401E049004D50398401C039087
:103C4000384606E00398401C0390012200980021AA
:103C5000C847002104E069464846FFF75BFC0121A4
:103C6000302808D10498401E0490F4D50398401CD5
:103C700003903846F3E70A001CBF302204F8012BFA
:103C8000002604E069464846FFF744FC0121A0F104
:103C900030020A2A86D2082E08DB0498401E0490BF
:103CA000F0D50398401C03903846EFE704F8010B69
:103CB000761CF2E700220AA800F0EEFBAA00FEF74D
:103CC000DFFF86E7C2E9000140E54C2A0AD153F83C
:103CD000042B0193002AF5D1DFF85403784400F552
:103CE00054708EE11D681A1D01922DB9DFF8400352
:103CF000784400F54F7084E100F08AFC286025E5E7
:103D000005980028CCBF401EDFF81C050490002851
:103D1000039808AC1AD4401C03900122009800219B
:103D2000C8472B2818BF2D2813D18DF820000DF17E
:103D3000210403990498491C401E00280490039113
:103D400006D4009801220021C84702E0401C0390DD
:103D500038460021029A1278642A18BF752A0FD0BB
:103D6000692A08BF00250CD06F2A08BF082508D093
:103D7000702A1CBF42F02002782A02D1102500E0F0
:103D80000A2530282ED104980126401E049003985D
:103D900005D4401C039001220098C84702E0401C53
:103DA0000390384640F02001C9B2782917D1002D80
:103DB00018BF102D1ED104981025401E04900398A2
:103DC00007D4401C0390012200980021C847002618
:103DD00010E0401C03903E464FF0000A4DE04DB904
:103DE000082507E0BDBB0A2535E069464846FFF7D0
:103DF00091FB0126302808D10498401E0490F4D588
:103E00000398401C03903846F3E731460A0022D05D
:103E1000302204F8012B1EE0412BA8BFA0F137038C
:103E200006DAA3F130020A2A34BFA0F13003FF23DF
:103E3000DBB2EAB293421ED219998C4214D3049891
:103E4000401E0490039812D4401C03900122009855
:103E50000021C847012110F1010F0CD0C3B2612B22
:103E6000DADBA0F15703E3E704F8010BE7E7401CB6
:103E700003900121384606468A463246694648463E
:103E8000FFF762FBBAF1000F1DD0002121709DF8F1
:103E90001C0000287FF45AAC02980078642818BFF0
:103EA000692869D02A4608A800F0BCFC01228DF8D8
:103EB0001E20029A1378702B10D1019B53F8042B0B
:103EC00001934AB99CE008A8844240F0A98016F109
:103ED000010F00F0A680A3E0106037E49DF81D20DC
:103EE000622A39D0682A11D06A2A25D06C2A06D0D5
:103EF000712A29D0742A18D07A2A0FD035E0019B74
:103F000053F8042B0193002AE6D179E0019B53F882
:103F1000042B0193002A73D0108017E4019B53F8FF
:103F2000042B0193002AD7D16AE0019B53F8042B9C
:103F30000193002AD0D163E0019B53F8042B019335
:103F4000002A7FF4BFAE5BE0019B53F8042B019382
:103F5000002A7FF4B7AE53E0019B53F8042B019382
:103F6000002A4DD01070FFF7F1BB019B53F8042BD2
:103F70000193002AB0D143E02A4608A800F0A6FC2D
:103F800001228DF81E209DF81D20622AE4D0682AA7
:103F9000BCD06A2A1DD06C2A06D0712A21D0742A7E
:103FA00010D07A2A07D024E0019B53F8042B019308
:103FB000002A91D124E0019B53F8042B0193002A9D
:103FC0008AD11DE0019B53F8042B0193002A83D171
:103FD00016E0019B53F8042B0193002A7FF472AE84
:103FE0000EE0019B53F8042B0193002A7FF46AAE84
:103FF00006E0019B53F8042B0193002A7FF46CAF79
:104000009BA0FEF76FFD3F1A05E000226946484677
:1040100000F03CF80746002F3FF798ABFFF780BB56
:104020000027B8F1000F7FF5CFAAB846FFF7CCBA4A
:1040300080450000CBCCCC0C686A6C747A4C0000D4
:104040001BB0BDE8F08FC9B208E003789942A4BF65
:1040500090F802C08C4515DAC01CD21E032A09D381
:1040600043782D2BF1D010F801CB8C4518BF521E90
:10407000F4D107E042B110F8013B8B4202D0521E4E
:10408000F9D101E001207047002070472DE9F04F81
:1040900014460026002C83B083460F464FF00009DB
:1040A00025D5B868411CB960084601785E2903BF70
:1040B000401CB86010F8018DC846BD6828785D289E
:1040C0000CBF681C28465D21FEF700FD002800F0AB
:1040D000A280411B0091B8600098032807DB821E74
:1040E0002D21681CFEF728FD08B14FF00109786901
:1040F000002804DC002C14BF6FF000400120386160
:10410000387F002801BF786850F804AB7860BAF1B6
:10411000000F07D14FF0FF3401487844801C10E0B5
:10412000E0440000387FA8B9F87F98B1796851F869
:10413000040B7960B0F1004FC0F007804FF0FF34FE
:1041400043A0FEF7CFFC201A6BE0B969884288BF14
:104150000846B861CDF80480CDF80890DDF80080FD
:1041600000E00226F8683969401C491E00293961BF
:10417000F86002D54FF0FF3937E03868012200219E
:10418000D847814619F1010F2FD0002C0CDC1ED529
:104190000298002801980AD000284246494628463D
:1041A00012D0FFF750FF09E000F072F806E0002897
:1041B00042464946284603D0FEF7BEFC38B114E01B
:1041C000FEF7BAFC88B102E0FFF73DFF68B1387F27
:1041D0000028C6D1B86938B10AF8019B0121B86935
:1041E000B977401EB861BCE7012658464A463946B1
:1041F000FFF7AAF90CB1022E09D0022E10D0F00759
:1042000002D419F1010F06D14FF0FF3009E0387FD9
:1042100030B9B86908B9002003E000208AF800002E
:10422000012003B0BDE8F08FFEFFFF7F63436E5BAC
:10423000000000007363616E665F733A2062616420
:1042400020256E20617267756D656E740000000038
:104250007363616E665F733A206261642025632C2C
:104260002025732C206F7220255B2073697A6500EE
:104270007363616E665F733A2062616420696E7475
:104280006567657220617267756D656E7400000008
:1042900010B50446FFF728F901462046096ABDE833
:1042A0001040084710B50446FFF71EF901462046A6
:1042B0000969BDE810400847F8B52DED048B1400DE
:1042C00082B041EC180B1D4600F0DA8031F000415D
:1042D00008BF002800F0D48051EC180B4A0052159A
:1042E00012F1010F02D1080300F0CA80002C9FEDEB
:1042F000689B57D56442654F7F4407F5C877082609
:104300000CE0E00707D5D7E9002351EC190BFEF7C5
:10431000F7FF41EC190B64080837761E002C18BF14
:10432000002EEED16A4651EC180BFEF73DFC009EC4
:1043300053EC192BFEF7A0FE3246FEF7A1FC41EC30
:10434000180B31F0004108BF002800F0828051ECCA
:10435000180B4A00521512F1010F01D1080378D051
:10436000002C76D06A4651EC180BFEF71DFC009E1F
:10437000994A9A4BFEF7C4FF3246FEF781FC41ECA6
:10438000180B31F0004108BF002862D051EC180B27
:104390004A00521512F1010F01D1080359D0641ED1
:1043A000E0D156E055DD394F7F4407F1E00708269C
:1043B000E00707D5D7E9002351EC190BFEF7A0FF62
:1043C00041EC190B64100837761E002C01DD002E1D
:1043D000EED16A4651EC180BFEF7E6FB2646009C30
:1043E00053EC192BFEF78CFF2246FEF749FC41ECFB
:1043F000180B31F0004108BF00282AD051EC180BEF
:104400004A00521512F1010F01D1080321D0002EEC
:104410001FDD6A4651EC180BFEF7C6FB009C704A84
:10442000784BFEF76DFF2246FEF72AFC41EC180B95
:1044300031F0004108BF00280BD051EC180B4A00A6
:10444000521512F1010F01D1080302D0761E002E81
:10445000DFDC51EC180B31F0004108BF002808D018
:1044600051EC180B4A00521512F1010F08D1080344
:1044700006D1AFF300801DB1286840F0010028602C
:1044800002B051EC180BBDEC048BF4BDA44000004D
:10449000000000000000F03F2DE9F14D81B00C4616
:1044A0002DED028B84B093465FEA030A1CBF002007
:1044B000CAF80000079D07A800F00BFAC11020F011
:1044C0000800012801F0010832D10220009001AB60
:1044D00007992246284600F08DFA040008BF9FED98
:1044E0004A0B1ED00298FEF785FC022C41EC100B03
:1044F00017DB03AF661E9FED3B8B51EC100B53ECAB
:10450000182BFEF7FDFE044657F8040B0D46FEF788
:1045100071FC22462B46FEF77FFC761E41EC100B09
:10452000EBD1019800EB0B02534651EC100B33E03A
:10453000022836D1009001AB07992246284600F0A8
:1045400035FB040008BF9FED300B1ED00298FEF72C
:1045500051FC022C41EC100B17DB03AF661E9FEDE4
:10456000238B51EC100B53EC182BFEF7C9FE0446BD
:1045700057F8040B0D46FEF73DFC22462B46FEF78E
:104580004BFC761E41EC100BEBD1019A51EC100B59
:10459000FEF776FB53465A46FFF78EFE41EC100BB2
:1045A0000AE0032808BF9FED130B05D004280CBFB9
:1045B0009FED120B9FED140BB8F1000F05D051ECDD
:1045C000100B81F0004141EC100B04B051EC100BCA
:1045D000BDEC028BBDE8FC8D436FAC642806C80AB5
:1045E0003CBF737F0000000065CDCD41000000009E
:1045F0000000B041000000000000F07FFFFFFFFF5F
:10460000FFFFFF7FDD4F1575000000000000000078
:1046100001F000428B1AA3F16051B1F5801F0ADB53
:10462000B1F17F6F1FD242EAC102C10071F10041B6
:1046300042EB507070470B15C3F10903212B10D2C8
:10464000890241EA905180020128494141F000412C
:1046500021FA03F0C3F12003994071F10041504168
:104660007047100070476FF0000013EB103F5CBF05
:10467000000E42EAC05070472DE9FC4F85B00C4651
:1046800093460BB100221A600290824601E00AF1C3
:10469000010A9AF80000FFF7FBFD0028F7D19AF80D
:1046A00000002D2818BF2B2807BF1AF8010B8DF822
:1046B00000002B218DF80010BBF1000F019405D4F0
:1046C000BBF1010F02D0BBF1250F04DB002C72D02F
:1046D000029820606FE0BBF1000F0DDDBBF1100F01
:1046E00004BF9AF80000302802BF9AF8010040F099
:1046F0002000782814D10EE09AF80000302818BF66
:104700004FF00A0B0CD19AF8010040F020007828F5
:1047100004D14FF0100B0AF1020A01E04FF0080B30
:10472000CDF810A001E00AF1010A9AF80000302843
:10473000F9D0094878442030002428300025CDF8ED
:104740000CA000260027A0468DF80100DFF8089095
:10475000F94409F1040919E0603D000001469DF8A3
:104760000100081A5FFA80F85846A0FB04234FEABC
:10477000EB7100FB053301FB0433264600212F4675
:1047800012EB080443EB01050AF1010A9AF8000054
:1047900000F012FB01465A4609F12800FEF7CCF959
:1047A0000028DBD1049951455A4607D1019810B130
:1047B0000199029808600020002130E0039919F85F
:1047C0000200AAEB0101091A00291BD410DC002306
:1047D000B4EB080065EB03018D4209D301D8844294
:1047E00006D3D317FDF784F9B94208BFB04209D008
:1047F000AFF30080069808B1012101604FF0FF344B
:10480000254606E09DF800002D2802D1644265EBA4
:104810004505019808B1C0F800A02046294607B018
:10482000BDE8F08F00BF002326E700002DE9F84324
:104830000C0091461D4608BF6C468046474600E086
:104840007F1C3878FFF724FD0028F9D13E782D2E03
:1048500018BF2B2E05D117F8010FFFF719FD08B16E
:1048600009E02B262B464A4621463846FFF704FF2F
:104870002268974205D1C4F8008000200021BDE8DD
:10488000F4832B2E05D14FF00043994209D2BDE8A5
:10489000F4832D2EFBD1B1F1004F12D301D80128A2
:1048A0000FD3AFF300800DB1012028602D2E19BF6A
:1048B0004FF0FF306FF0004100204FF00041BDE8A5
:1048C000F483404261EB4101BDE8F48300BF002363
:1048D000ACE72DE9F84305460C462E68002700E0BA
:1048E000761C3078FFF7D4FC0028F9D130782D28D9
:1048F0000CBF08272B2800D1761C307840F020010F
:104900006E2927D1707840F02000612802BFB0786E
:1049100040F020006E2802D02E68002746E0F61CEA
:10492000B046042798F8000028283FD118F8019FC6
:104930004846FFF7B7FC0028F8D1A9F130000A2853
:10494000F4D398F800005F28F0D029282ED108F180
:1049500001062BE069292CD1707840F020006E28E8
:1049600002BFB07840F02000662802D02E680027F1
:104970001CE016F8030F40F0200047F003076928F9
:1049800002BF707840F020006E280FD1B07840F060
:104990002000692802BFF07840F02000742805D17B
:1049A000307940F02000792808BF761DF4B12660E8
:1049B0001CE0302802BF707840F02000782813D126
:1049C000B01C01782E2908BF401C0078A0F16101BD
:1049D000062921BFA0F14102062A30380A2803D255
:1049E000B61C47F0020701E047F001072E60384689
:1049F000BDE8F2832DE9F14F8CB04FF00008169D11
:104A000005EBC5059246C3462D2DC8BF2D25C3F81D
:104A100000B0C3F804B0D94602E0491C4FF00109C8
:104A200008783028F9D0002411E01868401C18607C
:104A30000A78302A08D04FF0010805E0AC42F4DAD9
:104A400030380DF80400641C491C4FF00109087847
:104A5000A0F130020A2AF1D30F461E46FEF746FDAA
:104A6000406A39780278914208BF7F1C002C484682
:104A70000ED1397830290BD13068401E30607F1C50
:104A80000120F6E7302918BF4FF001087F1C0120F4
:104A90003978A1F130020A2A0AD2AC42F2DAA1F145
:104AA00030000DF80400641C3268521E3260EDE7DD
:104AB000B8F1000F0DD0ADF10102515D491C515507
:104AC00007E0ADF10103195D49B93268521C32604B
:104AD000641E002CF5DC04BF8DF800B00124002812
:104AE00056D0092394FBF3F3C4F1090903EBC30384
:104AF0004B44092193FBF1F1002201EBC101591A4A
:104B00001AD04FF0010B17E056F82B1001EB810182
:104B100005EB410146F82B100CE0092193FBF1F164
:104B200001EBC1011DF80250591AEDD10BF1010B37
:104B300046F82B505B1C521CA242EEDB397841F048
:104B40002001652924D1394617F8012F2B2A16BFD9
:104B50002D2A17F8013B2B2300220024124D08E0D8
:104B6000AC4204DA04EB84020CEB4204303C7F1CC0
:104B7000012297F800C0ACF1300EBEF10A0FEFD35E
:104B80002D2B08BF64423368E418346002B90F4625
:104B9000BAF1000F03D000B90C9FCAF80070584654
:104BA0000DB0BDE8F08F00BF00E1F5052DE9F14F34
:104BB0008CB00025169FC7EBC7079046232FC8BFB0
:104BC00023271D605D60A94602E0491C4FF00109E2
:104BD00008783028F9D000BF0FF2AC1070A2AA46B6
:104BE000019000920DF1080B0C461E4610E0316852
:104BF000491C316009E05745F9DB019A0099801A98
:104C0000085C0BF80A000AF1010A641C4FF0010964
:104C100094F800105CA01622FDF78EFF0028EAD160
:104C2000FEF764FC406A21780278914208BF641C58
:104C3000BAF1000F19D12078302816D13168491EF9
:104C40003160641C4FF00109F5E757450ADB019A12
:104C50000099801A085C0BF80A000AF1010A316811
:104C6000491E3160641C4FF0010921785FF0160283
:104C700045A0FDF761FF0028E7D151468F42484625
:104C800015DA1BF80710072904DD0DF10702D15DC5
:104C9000491CD155394633685B1C336007E00DF180
:104CA00007035A5C4AB933685B1C3360491E00290C
:104CB000F5DC04BF8DF8085001213268920000280D
:104CC000326054D0072791FBF7F7C1F1070CC7EB0F
:104CD000C7076744072297FBF2F20023C2EBC20228
:104CE000BA1A17D0012515E056F825200CEB021250
:104CF00046F825200CE002AA12F803C0072297FB11
:104D0000F2F2C2EBC202BA1AEED16D1C46F825C00F
:104D10007F1C5B1C8B42EEDB217841F02001702967
:104D200025D1214614F8012F2B2A16BF2D2A14F85D
:104D3000013B2B2300220027DFF848C008E067452D
:104D400004DA07EB87020EEB4207303F641C0122B6
:104D500094F800E0AEF13009B9F10A0FEFD32D2B32
:104D600008BF7F423368FF18376002B90C46B8F1BC
:104D7000000F03D000B90C9CC8F8004028460DB0C5
:104D8000BDE8F08F00E1F505303132333435363788
:104D900038396162636465664142434445460000B8
:104DA000000102030405060708090A0B0C0D0E0F8B
:104DB0000A0B0C0D0E0F000010B50446FEF794FB15
:104DC00001462046896ABDE8104008470EB418B570
:104DD00004469DF81100012818D1A06B20F4803002
:104DE000A063E168DFF844090140E160E16821F473
:104DF0004011E1609DF81800012803D1E06840F4FB
:104E00008010E060204600F066FC10E0E06840F0B2
:104E10004000E060204600F05EFC9DF8151000297F
:104E2000A16B0CBF41F4803121F48031A1639DF866
:104E30000E10012907D1A16841F00601A160A16807
:104E400041F02001A16012BC5DF810FB10B5022AF0
:104E500058D1DFF8DC28DFF8DC3852189A4238BF26
:104E60004FF4705150D3DFF8D028DFF8D038521803
:104E70009A4238BF4FF4605146D3DFF8C428DFF8B8
:104E8000C43852189A4238BF4FF450513CD3DFF81F
:104E9000B828DFF8B83852189A4238BF4FF440515A
:104EA00032D3DFF8AC28DFF8AC3852189A4238BF5A
:104EB0004FF4305128D3DFF8A028DFF8A03852187B
:104EC0009A4238BF4FF420511ED3DFF89428DFF800
:104ED000943852189A4215D3DFF88C48DFF88C28A2
:104EE0006418944238BF4FF400510DD3DFF8802886
:104EF000DFF88038511899422CBF4FF4C0514FF45D
:104F0000E05101E04FF41051C26822F47052C260C7
:104F1000C2681143C160002010BD816841F00101E9
:104F200002E081684908490081600020704738B577
:104F300004460025E06820F0C0400129E0600FD160
:104F4000E06840F00050E0600A2000F035FC606945
:104F50000A35C10701D4C82DF6D3C82D11D10EE0F2
:104F600069B9E06840F08040E0600A2000F024FC6D
:104F700060690A35C107F0D5C82DF6D3EDE70120E9
:104F800032BD002032BD0EB42DE9F0438046044608
:104F900000270021002004EB8102491C0F29C2F8E0
:104FA0000401F8D39DF8265008F5006655B97068DD
:104FB00040F002007060A06B40F40010A06300F0AD
:104FC000E2FB06E0A06B20F40010A063A06B40F4AD
:104FD0000020A06308F56061002008609DF82100B2
:104FE000012806D19DF81F20002A14BF01210021AD
:104FF00000E00321204600F0BEF81021204600F01A
:1050000077F800B10127204600F094F800B101279D
:105010000020306100217161F0614FF67F329DF810
:105020001C104FF090434FF0006C814607E00026C3
:10503000CEF80060CEF81090CEF80820401C8842D0
:1050400010D208EB401606F5106EDEF80060002E58
:10505000EDD5002806BF08F51066C6F800C0CEF8EA
:105060000030E7E7002007E00026CEF80060CEF829
:105070001090CEF80820401C884210D208EB401651
:1050800006F5306EDEF80060002EEDD5002806BF74
:1050900008F53066C6F800C0CEF80030E7E708F53E
:1050A00000680021D8F8100020F48070C8F81000C3
:1050B000A1616FF0804060619DF81E0000F05CFB14
:1050C000DFF8D4060143A1619DF8220018B1A06960
:1050D00040F00800A061012D05D1A06940F080409A
:1050E00040F00400A0613846BDE8F0035DF810FB15
:1050F00018B500220092DFF8A426009B5B1C0093E9
:10510000009B934212D20469002CF6D5002389013A
:10511000009341F0200101610099491C0091009920
:10512000914203D203699906F6D401E0032012BD2F
:10513000002012BD81B000210091DFF86016009AB6
:10514000521C0092009A8A4210D20369002BF6D5B5
:105150000022009210230361009A521C0092009AD0
:105160008A4203D20369DA06F6D401E0032000E0A4
:10517000002001B0704700F50060026811432AE288
:1051800000F50060806810F0060006D0022818BF05
:10519000062801D1022070470F20704770B50A78A9
:1051A0004E781346012502F00F0200EB431405FA76
:1051B00002F2012E00F50060DFF8E4550CD1C6695B
:1051C000324304F51064C2612068020411D400F077
:1051D00012F840EA83500AE0C36943EA024304F547
:1051E0003064C3612068020403D400F004F805436E
:1051F0002560002070BD20688A680979C2F30A0220
:10520000104340EA8140704730B500F03AF80DD1C4
:1052100000F5106000F023F8AC4300F019F824EA20
:105220000303D3610268DFF87C150DE000F5306000
:1052300000F015F824EA054400F00AF824EA0344D3
:10524000D4610268DFF860150A400260002030BDBA
:10525000D463D469097801F00F018B40704704686A
:10526000002C07D5046844F000640460056845F02C
:1052700080450560D46B0D7805F00F0503FA05F540
:1052800070470B784C7800F5006200EB4310012367
:10529000012C7047F8B50D460446697828782746F2
:1052A000012907F5006307EB4016DFF800C5DFF8BA
:1052B00000E57BD1296906F5106661B930690EEA0F
:1052C000000EC6F810E0316941F400213161306907
:1052D000C00CC00435E03169C90CC90431613169C1
:1052E0000EEA010EC6F810E02969D5F808E058B9B1
:1052F0007046884288BF0846286107F510673869FC
:1053000040F40020386117E07144491EB1FBFEF003
:1053100031690CEAC04747EA010CC6F810C0297988
:10532000012909D1316921F0C0413161400731695A
:1053300000F0C0400843306130692969C1F31201AF
:105340000843012A306109D1E86900B1706100F0B9
:1053500075F8326842F0044232606DE0306840F027
:1053600004403060297901290BD02869002863D0D6
:10537000586B2A78012102F00F02914008435863CC
:105380005AE09868C10504D4306840F0005030609D
:1053900003E0316841F080513160009220462B6972
:1053A0002A78E9689BB200F0A7F845E006F5306678
:1053B0003169C90CC904316131690EEA010EC6F8C0
:1053C00010E0AC68296970B901B12C6107F530674C
:1053D0002C62C4F31204386904433C61386940F418
:1053E000002038611DE041B93069C4F31204044360
:1053F0003461306940F4002012E06118491EB1FBAD
:10540000F4F080B244432C620CEAC040316940EAB7
:10541000010CC6F810C03069296AC1F312010843B3
:105420003061012A02D1E86800B1706100F006F82D
:10543000306840F0044030600020F2BD2879012837
:105440000BD19868C10504D4306840F0005030603A
:105450007047316841F080513160704778B5002263
:1054600000920B784D7800EB4314012D42F211733A
:1054700018D104F510642568002D2DD500F034F8FE
:1054800004F51064256845F08045256000F026F895
:1054900021D20D7800EB451606F510663468002C15
:1054A000F4D419E004F530642568002D14D500F01B
:1054B0001BF804F53064256845F08045256000F050
:1054C0000DF808D20D7800EB451606F53066346805
:1054D000002CF4D400E00122104672BD009C641C34
:1054E0000094009C9C427047256845F0006525604B
:1054F0000C7800EB44147047B8B5059CE4B264B96D
:10550000DB1C07E000EB023751F8045B07F580571E
:10551000641C3D60B4EB930FF4D30020B2BD38B5EA
:10552000930802F00302002400F5805003E00568B0
:1055300041F8045B641C9C42F9D313000DD0006851
:105540006C46002320600098521EDC005B1C95B264
:10555000E040002D01F8010BF5D1084632BD0A7874
:10556000497800EB421001290CBF00F5106000F5EE
:1055700030600168002904D41AB1016821F080412B
:105580000160026842F400120260002070470A784D
:1055900000EB42104A78012A0CBF00F5106000F5BC
:1055A0003060026822F4001202600979032918BFF2
:1055B000022903D1016841F0805101600020704749
:1055C00000F500600901026822F4FE62026001F445
:1055D000FE610368194301600020704700F56061B7
:1055E00000F500600A68920892000A60416821F0A4
:1055F00002010AE000F5606100F500600A689208A7
:1056000092000A60416841F0020141600020704749
:105610000146486989690840704700F5006188695A
:10562000C9690840000C704700F500618869C969C4
:10563000084080B27047024602EB411000F530602E
:1056400002F500628068516908407047024602F521
:10565000006302EB411218695B6B01F00F0102F568
:105660001062CB40DB01926803F0800318431040C6
:105670007047406900F00100704700F5106100F5C7
:1056800000600A68D20AD2020A60416841F480715F
:10569000BBE710B5036CDFF81C41A34200F5306096
:1056A00002D30368002B14D4002303610129046989
:1056B00044F400240461036943F01803036103699F
:1056C00043F0C043036104D14261016841F080218D
:1056D0000160002010BD81B0014600200090DFF87D
:1056E000BC200098401C00900098904218D20B6992
:1056F000002BF6D50A2001E00098401E009000988B
:105700000028F9D1086940F0010008610098401CA8
:1057100000900098904203D20B69D807F6D401E0BC
:10572000032000E0002001B070470000BFFFBDFF74
:10573000405327FF00350C00401E1BFF40420F0066
:1057400000DC0BFF804F1200808CF9FE20D6130086
:1057500060B6E5FE60E3160000D3CEFE40771B0086
:10576000C05BB3FEC091210000CA91FE20753800D5
:10577000E05459FEE09C410018B9A06940F01000C7
:10578000A061A1697047A06B20F40020A063A06B0A
:1057900020F480207047000000383C800100000F9A
:1057A00000800010007833EC0078F3EF0000F81F61
:1057B000FFFF07E00B30544F38B50446FBF75AFFA4
:1057C00014F1010F054602D0044801786418FBF774
:1057D00051FF401BA042FAD331BD00BF940000200E
:1057E0007CB5040053D0266804F29445687820B94B
:1057F00000212970204600F0BBFC03206870B6F140
:10580000A04F04BF0020A0712068FFF78AFB83B07F
:1058100000F047F80EBC2068FFF7D8FA002834D112
:1058200020680021FFF783FB78BB0021242000269D
:105830000DE010FB01F22244012353751175D1854F
:105840000023491C1376D66113625662C9B22279CD
:105850009142EEDB00210DE010FB01F2224402F543
:105860001572002311705370491C16719360D66035
:105870001361C9B222799142EEDB83B000F011F8D6
:105880000EBC2068FFF77FFB18B102206870012072
:1058900076BD6074012169702068FFF7ABFE0020BF
:1058A00076BD211D68460D22FDF772B910B500F0D6
:1058B00057FB01D1022010BD00F04CFB01D500F0D8
:1058C00056FBFFF72AFB20683EE32DE9F84F05461B
:1058D00086B0286802900190FFF7CBFE002840F0C8
:1058E000288300F029FB002800F02383019800F5AD
:1058F000006005F2CC418268C2F30D20886000F0A0
:105900001BFB800704D52868416901F00201416151
:1059100000F012FBC00633D52868816921F0100120
:10592000816105F515710298066A06F00F022420C0
:1059300042438C18C6F3434002280FD147F6F0705B
:10594000064218D0E1680298C6F30A12FFF7E7FD95
:10595000E068C6F30A110844E06007E006280AD1AF
:105960000298082205F29C41FFF7D9FD6169C6F350
:105970000A10411861612868816941F01001816154
:105980002868019EFFF744FE000306F5006640F11B
:10599000D0802868DFF8A8B5FFF73FFE00242F4627
:1059A00005004FF4004A63E0002C04BFD7F86402FE
:1059B000002809D107F29C4200211846FFF769FE32
:1059C00002E008B120209060E1B2384600F015FCFA
:1059D0005FEA08701FD50821C9F808103868016C03
:1059E000039100EB441000F530608168039A5A453A
:1059F00003D3090448BFC0F808A0384600F0F7FBFD
:105A00000398584507D3B979012904D1386807F2BA
:105A10009C42FFF73EFE5FEAC86044BF1021C9F810
:105A200008105FEA887014D502994869010603D509
:105A3000706840F4806070600098C178012905D1D9
:105A40000022C270E1B2384600F019FC0220C9F809
:105A500008005FEA886044BF2021C9F808105FEAA7
:105A6000884044BF4FF40051C9F80810641C6D0809
:105A70005ED0E807FAD53868E1B2FFF7DCFD804672
:105A8000019800EB441000F53069242107F51570EA
:105A9000614301445FEAC870009199D50121C9F8BA
:105AA00008103B68196C03EB441202F53062D2F81F
:105AB00008C097F806E0BEF1010F0CF020002BD1D2
:105AC0005FEA0C7305D5594582D35FEA0C412CD4AB
:105AD0007EE710B1202090607AE71CF0280FFBD100
